{
	"contracts/smart_contract.sol": {
		"StdArray": {
			"abi": [
				{
					"inputs": [],
					"name": "AverageMarksAll",
					"outputs": [
						{
							"internalType": "uint256[]",
							"name": "",
							"type": "uint256[]"
						}
					],
					"stateMutability": "view",
					"type": "function"
				},
				{
					"inputs": [
						{
							"internalType": "uint256",
							"name": "i",
							"type": "uint256"
						}
					],
					"name": "AvgmarkStudent",
					"outputs": [
						{
							"internalType": "uint256",
							"name": "",
							"type": "uint256"
						}
					],
					"stateMutability": "view",
					"type": "function"
				},
				{
					"inputs": [
						{
							"internalType": "string",
							"name": "n",
							"type": "string"
						},
						{
							"internalType": "uint256",
							"name": "m1",
							"type": "uint256"
						},
						{
							"internalType": "uint256",
							"name": "m2",
							"type": "uint256"
						},
						{
							"internalType": "uint256",
							"name": "m3",
							"type": "uint256"
						},
						{
							"internalType": "uint256",
							"name": "sem",
							"type": "uint256"
						},
						{
							"internalType": "uint256",
							"name": "roll",
							"type": "uint256"
						}
					],
					"name": "setStudent",
					"outputs": [],
					"stateMutability": "nonpayable",
					"type": "function"
				}
			],
			"devdoc": {
				"kind": "dev",
				"methods": {},
				"version": 1
			},
			"evm": {
				"assembly": "    /* \"contracts/smart_contract.sol\":35:842  contract StdArray... */\n  mstore(0x40, 0x80)\n  callvalue\n  dup1\n  iszero\n  tag_1\n  jumpi\n  0x00\n  dup1\n  revert\ntag_1:\n  pop\n  dataSize(sub_0)\n  dup1\n  dataOffset(sub_0)\n  0x00\n  codecopy\n  0x00\n  return\nstop\n\nsub_0: assembly {\n        /* \"contracts/smart_contract.sol\":35:842  contract StdArray... */\n      mstore(0x40, 0x80)\n      callvalue\n      dup1\n      iszero\n      tag_1\n      jumpi\n      0x00\n      dup1\n      revert\n    tag_1:\n      pop\n      jumpi(tag_2, lt(calldatasize, 0x04))\n      shr(0xe0, calldataload(0x00))\n      dup1\n      0x4ed00023\n      eq\n      tag_3\n      jumpi\n      dup1\n      0x7beb8d6c\n      eq\n      tag_4\n      jumpi\n      dup1\n      0x9e2986e5\n      eq\n      tag_5\n      jumpi\n    tag_2:\n      0x00\n      dup1\n      revert\n        /* \"contracts/smart_contract.sol\":738:839  function AverageMarksAll() public view returns(uint[] memory)... */\n    tag_3:\n      tag_6\n      tag_7\n      jump\t// in\n    tag_6:\n      mload(0x40)\n      tag_8\n      swap2\n      swap1\n      tag_9\n      jump\t// in\n    tag_8:\n      mload(0x40)\n      dup1\n      swap2\n      sub\n      swap1\n      return\n        /* \"contracts/smart_contract.sol\":280:619  function setStudent(string memory n, uint m1,uint m2, uint m3, uint sem, uint roll)public ... */\n    tag_4:\n      tag_10\n      0x04\n      dup1\n      calldatasize\n      sub\n      dup2\n      add\n      swap1\n      tag_11\n      swap2\n      swap1\n      tag_12\n      jump\t// in\n    tag_11:\n      tag_13\n      jump\t// in\n    tag_10:\n      stop\n        /* \"contracts/smart_contract.sol\":627:730  function AvgmarkStudent(uint i)public view returns(uint)... */\n    tag_5:\n      tag_14\n      0x04\n      dup1\n      calldatasize\n      sub\n      dup2\n      add\n      swap1\n      tag_15\n      swap2\n      swap1\n      tag_16\n      jump\t// in\n    tag_15:\n      tag_17\n      jump\t// in\n    tag_14:\n      mload(0x40)\n      tag_18\n      swap2\n      swap1\n      tag_19\n      jump\t// in\n    tag_18:\n      mload(0x40)\n      dup1\n      swap2\n      sub\n      swap1\n      return\n        /* \"contracts/smart_contract.sol\":738:839  function AverageMarksAll() public view returns(uint[] memory)... */\n    tag_7:\n        /* \"contracts/smart_contract.sol\":785:798  uint[] memory */\n      0x60\n        /* \"contracts/smart_contract.sol\":823:830  Average */\n      0x01\n        /* \"contracts/smart_contract.sol\":816:831  return(Average) */\n      dup1\n      sload\n      dup1\n      0x20\n      mul\n      0x20\n      add\n      mload(0x40)\n      swap1\n      dup2\n      add\n      0x40\n      mstore\n      dup1\n      swap3\n      swap2\n      swap1\n      dup2\n      dup2\n      mstore\n      0x20\n      add\n      dup3\n      dup1\n      sload\n      dup1\n      iszero\n      tag_21\n      jumpi\n      0x20\n      mul\n      dup3\n      add\n      swap2\n      swap1\n      0x00\n      mstore\n      keccak256(0x00, 0x20)\n      swap1\n    tag_22:\n      dup2\n      sload\n      dup2\n      mstore\n      0x20\n      add\n      swap1\n      0x01\n      add\n      swap1\n      dup1\n      dup4\n      gt\n      tag_22\n      jumpi\n    tag_21:\n      pop\n      pop\n      pop\n      pop\n      pop\n      swap1\n      pop\n        /* \"contracts/smart_contract.sol\":738:839  function AverageMarksAll() public view returns(uint[] memory)... */\n      swap1\n      jump\t// out\n        /* \"contracts/smart_contract.sol\":280:619  function setStudent(string memory n, uint m1,uint m2, uint m3, uint sem, uint roll)public ... */\n    tag_13:\n        /* \"contracts/smart_contract.sol\":410:411  6 */\n      0x06\n        /* \"contracts/smart_contract.sol\":395:402  student */\n      0x00\n        /* \"contracts/smart_contract.sol\":395:409  student.length */\n      dup1\n      sload\n      swap1\n      pop\n        /* \"contracts/smart_contract.sol\":395:411  student.length<6 */\n      lt\n        /* \"contracts/smart_contract.sol\":387:437  require(student.length<6,\"Maximum limit reached.\") */\n      tag_24\n      jumpi\n      mload(0x40)\n      0x08c379a000000000000000000000000000000000000000000000000000000000\n      dup2\n      mstore\n      0x04\n      add\n      tag_25\n      swap1\n      tag_26\n      jump\t// in\n    tag_25:\n      mload(0x40)\n      dup1\n      swap2\n      sub\n      swap1\n      revert\n    tag_24:\n        /* \"contracts/smart_contract.sol\":448:468  students memory stud */\n      0x00\n        /* \"contracts/smart_contract.sol\":471:502  students(n,m1,m2,m3,sem,roll,0) */\n      mload(0x40)\n      dup1\n      0xe0\n      add\n      0x40\n      mstore\n      dup1\n        /* \"contracts/smart_contract.sol\":480:481  n */\n      dup9\n        /* \"contracts/smart_contract.sol\":471:502  students(n,m1,m2,m3,sem,roll,0) */\n      dup2\n      mstore\n      0x20\n      add\n        /* \"contracts/smart_contract.sol\":482:484  m1 */\n      dup8\n        /* \"contracts/smart_contract.sol\":471:502  students(n,m1,m2,m3,sem,roll,0) */\n      dup2\n      mstore\n      0x20\n      add\n        /* \"contracts/smart_contract.sol\":485:487  m2 */\n      dup7\n        /* \"contracts/smart_contract.sol\":471:502  students(n,m1,m2,m3,sem,roll,0) */\n      dup2\n      mstore\n      0x20\n      add\n        /* \"contracts/smart_contract.sol\":488:490  m3 */\n      dup6\n        /* \"contracts/smart_contract.sol\":471:502  students(n,m1,m2,m3,sem,roll,0) */\n      dup2\n      mstore\n      0x20\n      add\n        /* \"contracts/smart_contract.sol\":491:494  sem */\n      dup5\n        /* \"contracts/smart_contract.sol\":471:502  students(n,m1,m2,m3,sem,roll,0) */\n      dup2\n      mstore\n      0x20\n      add\n        /* \"contracts/smart_contract.sol\":495:499  roll */\n      dup4\n        /* \"contracts/smart_contract.sol\":471:502  students(n,m1,m2,m3,sem,roll,0) */\n      dup2\n      mstore\n      0x20\n      add\n        /* \"contracts/smart_contract.sol\":500:501  0 */\n      0x00\n        /* \"contracts/smart_contract.sol\":471:502  students(n,m1,m2,m3,sem,roll,0) */\n      dup2\n      mstore\n      pop\n        /* \"contracts/smart_contract.sol\":448:502  students memory stud = students(n,m1,m2,m3,sem,roll,0) */\n      swap1\n      pop\n        /* \"contracts/smart_contract.sol\":548:549  3 */\n      0x03\n        /* \"contracts/smart_contract.sol\":539:543  stud */\n      dup2\n        /* \"contracts/smart_contract.sol\":539:546  stud.m3 */\n      0x60\n      add\n      mload\n        /* \"contracts/smart_contract.sol\":531:535  stud */\n      dup3\n        /* \"contracts/smart_contract.sol\":531:538  stud.m2 */\n      0x40\n      add\n      mload\n        /* \"contracts/smart_contract.sol\":523:527  stud */\n      dup4\n        /* \"contracts/smart_contract.sol\":523:530  stud.m1 */\n      0x20\n      add\n      mload\n        /* \"contracts/smart_contract.sol\":523:538  stud.m1+stud.m2 */\n      tag_27\n      swap2\n      swap1\n      tag_28\n      jump\t// in\n    tag_27:\n        /* \"contracts/smart_contract.sol\":523:546  stud.m1+stud.m2+stud.m3 */\n      tag_29\n      swap2\n      swap1\n      tag_28\n      jump\t// in\n    tag_29:\n        /* \"contracts/smart_contract.sol\":522:549  (stud.m1+stud.m2+stud.m3)/3 */\n      tag_30\n      swap2\n      swap1\n      tag_31\n      jump\t// in\n    tag_30:\n        /* \"contracts/smart_contract.sol\":513:517  stud */\n      dup2\n        /* \"contracts/smart_contract.sol\":513:521  stud.avg */\n      0xc0\n      add\n        /* \"contracts/smart_contract.sol\":513:549  stud.avg=(stud.m1+stud.m2+stud.m3)/3 */\n      dup2\n      dup2\n      mstore\n      pop\n      pop\n        /* \"contracts/smart_contract.sol\":560:567  Average */\n      0x01\n        /* \"contracts/smart_contract.sol\":573:577  stud */\n      dup2\n        /* \"contracts/smart_contract.sol\":573:581  stud.avg */\n      0xc0\n      add\n      mload\n        /* \"contracts/smart_contract.sol\":560:582  Average.push(stud.avg) */\n      swap1\n      dup1\n      0x01\n      dup2\n      sload\n      add\n      dup1\n      dup3\n      sstore\n      dup1\n      swap2\n      pop\n      pop\n      0x01\n      swap1\n      sub\n      swap1\n      0x00\n      mstore\n      keccak256(0x00, 0x20)\n      add\n      0x00\n      swap1\n      swap2\n      swap1\n      swap2\n      swap1\n      swap2\n      pop\n      sstore\n        /* \"contracts/smart_contract.sol\":593:600  student */\n      0x00\n        /* \"contracts/smart_contract.sol\":606:610  stud */\n      dup2\n        /* \"contracts/smart_contract.sol\":593:611  student.push(stud) */\n      swap1\n      dup1\n      0x01\n      dup2\n      sload\n      add\n      dup1\n      dup3\n      sstore\n      dup1\n      swap2\n      pop\n      pop\n      0x01\n      swap1\n      sub\n      swap1\n      0x00\n      mstore\n      keccak256(0x00, 0x20)\n      swap1\n      0x07\n      mul\n      add\n      0x00\n      swap1\n      swap2\n      swap1\n      swap2\n      swap1\n      swap2\n      pop\n      0x00\n      dup3\n      add\n      mload\n      dup2\n      0x00\n      add\n      swap1\n      dup2\n      tag_34\n      swap2\n      swap1\n      tag_35\n      jump\t// in\n    tag_34:\n      pop\n      0x20\n      dup3\n      add\n      mload\n      dup2\n      0x01\n      add\n      sstore\n      0x40\n      dup3\n      add\n      mload\n      dup2\n      0x02\n      add\n      sstore\n      0x60\n      dup3\n      add\n      mload\n      dup2\n      0x03\n      add\n      sstore\n      0x80\n      dup3\n      add\n      mload\n      dup2\n      0x04\n      add\n      sstore\n      0xa0\n      dup3\n      add\n      mload\n      dup2\n      0x05\n      add\n      sstore\n      0xc0\n      dup3\n      add\n      mload\n      dup2\n      0x06\n      add\n      sstore\n      pop\n      pop\n        /* \"contracts/smart_contract.sol\":376:619  {... */\n      pop\n        /* \"contracts/smart_contract.sol\":280:619  function setStudent(string memory n, uint m1,uint m2, uint m3, uint sem, uint roll)public ... */\n      pop\n      pop\n      pop\n      pop\n      pop\n      pop\n      jump\t// out\n        /* \"contracts/smart_contract.sol\":627:730  function AvgmarkStudent(uint i)public view returns(uint)... */\n    tag_17:\n        /* \"contracts/smart_contract.sol\":678:682  uint */\n      0x00\n        /* \"contracts/smart_contract.sol\":707:714  student */\n      dup1\n        /* \"contracts/smart_contract.sol\":715:716  i */\n      dup3\n        /* \"contracts/smart_contract.sol\":707:717  student[i] */\n      dup2\n      sload\n      dup2\n      lt\n      tag_37\n      jumpi\n      tag_38\n      tag_39\n      jump\t// in\n    tag_38:\n    tag_37:\n      swap1\n      0x00\n      mstore\n      keccak256(0x00, 0x20)\n      swap1\n      0x07\n      mul\n      add\n        /* \"contracts/smart_contract.sol\":707:721  student[i].avg */\n      0x06\n      add\n      sload\n        /* \"contracts/smart_contract.sol\":700:722  return(student[i].avg) */\n      swap1\n      pop\n        /* \"contracts/smart_contract.sol\":627:730  function AvgmarkStudent(uint i)public view returns(uint)... */\n      swap2\n      swap1\n      pop\n      jump\t// out\n        /* \"#utility.yul\":7:121   */\n    tag_41:\n        /* \"#utility.yul\":74:80   */\n      0x00\n        /* \"#utility.yul\":108:113   */\n      dup2\n        /* \"#utility.yul\":102:114   */\n      mload\n        /* \"#utility.yul\":92:114   */\n      swap1\n      pop\n        /* \"#utility.yul\":7:121   */\n      swap2\n      swap1\n      pop\n      jump\t// out\n        /* \"#utility.yul\":127:311   */\n    tag_42:\n        /* \"#utility.yul\":226:237   */\n      0x00\n        /* \"#utility.yul\":260:266   */\n      dup3\n        /* \"#utility.yul\":255:258   */\n      dup3\n        /* \"#utility.yul\":248:267   */\n      mstore\n        /* \"#utility.yul\":300:304   */\n      0x20\n        /* \"#utility.yul\":295:298   */\n      dup3\n        /* \"#utility.yul\":291:305   */\n      add\n        /* \"#utility.yul\":276:305   */\n      swap1\n      pop\n        /* \"#utility.yul\":127:311   */\n      swap3\n      swap2\n      pop\n      pop\n      jump\t// out\n        /* \"#utility.yul\":317:449   */\n    tag_43:\n        /* \"#utility.yul\":384:388   */\n      0x00\n        /* \"#utility.yul\":407:410   */\n      dup2\n        /* \"#utility.yul\":399:410   */\n      swap1\n      pop\n        /* \"#utility.yul\":437:441   */\n      0x20\n        /* \"#utility.yul\":432:435   */\n      dup3\n        /* \"#utility.yul\":428:442   */\n      add\n        /* \"#utility.yul\":420:442   */\n      swap1\n      pop\n        /* \"#utility.yul\":317:449   */\n      swap2\n      swap1\n      pop\n      jump\t// out\n        /* \"#utility.yul\":455:532   */\n    tag_44:\n        /* \"#utility.yul\":492:499   */\n      0x00\n        /* \"#utility.yul\":521:526   */\n      dup2\n        /* \"#utility.yul\":510:526   */\n      swap1\n      pop\n        /* \"#utility.yul\":455:532   */\n      swap2\n      swap1\n      pop\n      jump\t// out\n        /* \"#utility.yul\":538:646   */\n    tag_45:\n        /* \"#utility.yul\":615:639   */\n      tag_94\n        /* \"#utility.yul\":633:638   */\n      dup2\n        /* \"#utility.yul\":615:639   */\n      tag_44\n      jump\t// in\n    tag_94:\n        /* \"#utility.yul\":610:613   */\n      dup3\n        /* \"#utility.yul\":603:640   */\n      mstore\n        /* \"#utility.yul\":538:646   */\n      pop\n      pop\n      jump\t// out\n        /* \"#utility.yul\":652:831   */\n    tag_46:\n        /* \"#utility.yul\":721:731   */\n      0x00\n        /* \"#utility.yul\":742:788   */\n      tag_96\n        /* \"#utility.yul\":784:787   */\n      dup4\n        /* \"#utility.yul\":776:782   */\n      dup4\n        /* \"#utility.yul\":742:788   */\n      tag_45\n      jump\t// in\n    tag_96:\n        /* \"#utility.yul\":820:824   */\n      0x20\n        /* \"#utility.yul\":815:818   */\n      dup4\n        /* \"#utility.yul\":811:825   */\n      add\n        /* \"#utility.yul\":797:825   */\n      swap1\n      pop\n        /* \"#utility.yul\":652:831   */\n      swap3\n      swap2\n      pop\n      pop\n      jump\t// out\n        /* \"#utility.yul\":837:950   */\n    tag_47:\n        /* \"#utility.yul\":907:911   */\n      0x00\n        /* \"#utility.yul\":939:943   */\n      0x20\n        /* \"#utility.yul\":934:937   */\n      dup3\n        /* \"#utility.yul\":930:944   */\n      add\n        /* \"#utility.yul\":922:944   */\n      swap1\n      pop\n        /* \"#utility.yul\":837:950   */\n      swap2\n      swap1\n      pop\n      jump\t// out\n        /* \"#utility.yul\":986:1718   */\n    tag_48:\n        /* \"#utility.yul\":1105:1108   */\n      0x00\n        /* \"#utility.yul\":1134:1188   */\n      tag_99\n        /* \"#utility.yul\":1182:1187   */\n      dup3\n        /* \"#utility.yul\":1134:1188   */\n      tag_41\n      jump\t// in\n    tag_99:\n        /* \"#utility.yul\":1204:1290   */\n      tag_100\n        /* \"#utility.yul\":1283:1289   */\n      dup2\n        /* \"#utility.yul\":1278:1281   */\n      dup6\n        /* \"#utility.yul\":1204:1290   */\n      tag_42\n      jump\t// in\n    tag_100:\n        /* \"#utility.yul\":1197:1290   */\n      swap4\n      pop\n        /* \"#utility.yul\":1314:1370   */\n      tag_101\n        /* \"#utility.yul\":1364:1369   */\n      dup4\n        /* \"#utility.yul\":1314:1370   */\n      tag_43\n      jump\t// in\n    tag_101:\n        /* \"#utility.yul\":1393:1400   */\n      dup1\n        /* \"#utility.yul\":1424:1425   */\n      0x00\n        /* \"#utility.yul\":1409:1693   */\n    tag_102:\n        /* \"#utility.yul\":1434:1440   */\n      dup4\n        /* \"#utility.yul\":1431:1432   */\n      dup2\n        /* \"#utility.yul\":1428:1441   */\n      lt\n        /* \"#utility.yul\":1409:1693   */\n      iszero\n      tag_104\n      jumpi\n        /* \"#utility.yul\":1510:1516   */\n      dup2\n        /* \"#utility.yul\":1504:1517   */\n      mload\n        /* \"#utility.yul\":1537:1600   */\n      tag_105\n        /* \"#utility.yul\":1596:1599   */\n      dup9\n        /* \"#utility.yul\":1581:1594   */\n      dup3\n        /* \"#utility.yul\":1537:1600   */\n      tag_46\n      jump\t// in\n    tag_105:\n        /* \"#utility.yul\":1530:1600   */\n      swap8\n      pop\n        /* \"#utility.yul\":1623:1683   */\n      tag_106\n        /* \"#utility.yul\":1676:1682   */\n      dup4\n        /* \"#utility.yul\":1623:1683   */\n      tag_47\n      jump\t// in\n    tag_106:\n        /* \"#utility.yul\":1613:1683   */\n      swap3\n      pop\n        /* \"#utility.yul\":1469:1693   */\n      pop\n        /* \"#utility.yul\":1456:1457   */\n      0x01\n        /* \"#utility.yul\":1453:1454   */\n      dup2\n        /* \"#utility.yul\":1449:1458   */\n      add\n        /* \"#utility.yul\":1444:1458   */\n      swap1\n      pop\n        /* \"#utility.yul\":1409:1693   */\n      jump(tag_102)\n    tag_104:\n        /* \"#utility.yul\":1413:1427   */\n      pop\n        /* \"#utility.yul\":1709:1712   */\n      dup6\n        /* \"#utility.yul\":1702:1712   */\n      swap4\n      pop\n        /* \"#utility.yul\":1110:1718   */\n      pop\n      pop\n      pop\n        /* \"#utility.yul\":986:1718   */\n      swap3\n      swap2\n      pop\n      pop\n      jump\t// out\n        /* \"#utility.yul\":1724:2097   */\n    tag_9:\n        /* \"#utility.yul\":1867:1871   */\n      0x00\n        /* \"#utility.yul\":1905:1907   */\n      0x20\n        /* \"#utility.yul\":1894:1903   */\n      dup3\n        /* \"#utility.yul\":1890:1908   */\n      add\n        /* \"#utility.yul\":1882:1908   */\n      swap1\n      pop\n        /* \"#utility.yul\":1954:1963   */\n      dup2\n        /* \"#utility.yul\":1948:1952   */\n      dup2\n        /* \"#utility.yul\":1944:1964   */\n      sub\n        /* \"#utility.yul\":1940:1941   */\n      0x00\n        /* \"#utility.yul\":1929:1938   */\n      dup4\n        /* \"#utility.yul\":1925:1942   */\n      add\n        /* \"#utility.yul\":1918:1965   */\n      mstore\n        /* \"#utility.yul\":1982:2090   */\n      tag_108\n        /* \"#utility.yul\":2085:2089   */\n      dup2\n        /* \"#utility.yul\":2076:2082   */\n      dup5\n        /* \"#utility.yul\":1982:2090   */\n      tag_48\n      jump\t// in\n    tag_108:\n        /* \"#utility.yul\":1974:2090   */\n      swap1\n      pop\n        /* \"#utility.yul\":1724:2097   */\n      swap3\n      swap2\n      pop\n      pop\n      jump\t// out\n        /* \"#utility.yul\":2103:2178   */\n    tag_49:\n        /* \"#utility.yul\":2136:2142   */\n      0x00\n        /* \"#utility.yul\":2169:2171   */\n      0x40\n        /* \"#utility.yul\":2163:2172   */\n      mload\n        /* \"#utility.yul\":2153:2172   */\n      swap1\n      pop\n        /* \"#utility.yul\":2103:2178   */\n      swap1\n      jump\t// out\n        /* \"#utility.yul\":2184:2301   */\n    tag_50:\n        /* \"#utility.yul\":2293:2294   */\n      0x00\n        /* \"#utility.yul\":2290:2291   */\n      dup1\n        /* \"#utility.yul\":2283:2295   */\n      revert\n        /* \"#utility.yul\":2307:2424   */\n    tag_51:\n        /* \"#utility.yul\":2416:2417   */\n      0x00\n        /* \"#utility.yul\":2413:2414   */\n      dup1\n        /* \"#utility.yul\":2406:2418   */\n      revert\n        /* \"#utility.yul\":2430:2547   */\n    tag_52:\n        /* \"#utility.yul\":2539:2540   */\n      0x00\n        /* \"#utility.yul\":2536:2537   */\n      dup1\n        /* \"#utility.yul\":2529:2541   */\n      revert\n        /* \"#utility.yul\":2553:2670   */\n    tag_53:\n        /* \"#utility.yul\":2662:2663   */\n      0x00\n        /* \"#utility.yul\":2659:2660   */\n      dup1\n        /* \"#utility.yul\":2652:2664   */\n      revert\n        /* \"#utility.yul\":2676:2778   */\n    tag_54:\n        /* \"#utility.yul\":2717:2723   */\n      0x00\n        /* \"#utility.yul\":2768:2770   */\n      0x1f\n        /* \"#utility.yul\":2764:2771   */\n      not\n        /* \"#utility.yul\":2759:2761   */\n      0x1f\n        /* \"#utility.yul\":2752:2757   */\n      dup4\n        /* \"#utility.yul\":2748:2762   */\n      add\n        /* \"#utility.yul\":2744:2772   */\n      and\n        /* \"#utility.yul\":2734:2772   */\n      swap1\n      pop\n        /* \"#utility.yul\":2676:2778   */\n      swap2\n      swap1\n      pop\n      jump\t// out\n        /* \"#utility.yul\":2784:2964   */\n    tag_55:\n        /* \"#utility.yul\":2832:2909   */\n      0x4e487b7100000000000000000000000000000000000000000000000000000000\n        /* \"#utility.yul\":2829:2830   */\n      0x00\n        /* \"#utility.yul\":2822:2910   */\n      mstore\n        /* \"#utility.yul\":2929:2933   */\n      0x41\n        /* \"#utility.yul\":2926:2927   */\n      0x04\n        /* \"#utility.yul\":2919:2934   */\n      mstore\n        /* \"#utility.yul\":2953:2957   */\n      0x24\n        /* \"#utility.yul\":2950:2951   */\n      0x00\n        /* \"#utility.yul\":2943:2958   */\n      revert\n        /* \"#utility.yul\":2970:3251   */\n    tag_56:\n        /* \"#utility.yul\":3053:3080   */\n      tag_117\n        /* \"#utility.yul\":3075:3079   */\n      dup3\n        /* \"#utility.yul\":3053:3080   */\n      tag_54\n      jump\t// in\n    tag_117:\n        /* \"#utility.yul\":3045:3051   */\n      dup2\n        /* \"#utility.yul\":3041:3081   */\n      add\n        /* \"#utility.yul\":3183:3189   */\n      dup2\n        /* \"#utility.yul\":3171:3181   */\n      dup2\n        /* \"#utility.yul\":3168:3190   */\n      lt\n        /* \"#utility.yul\":3147:3165   */\n      0xffffffffffffffff\n        /* \"#utility.yul\":3135:3145   */\n      dup3\n        /* \"#utility.yul\":3132:3166   */\n      gt\n        /* \"#utility.yul\":3129:3191   */\n      or\n        /* \"#utility.yul\":3126:3214   */\n      iszero\n      tag_118\n      jumpi\n        /* \"#utility.yul\":3194:3212   */\n      tag_119\n      tag_55\n      jump\t// in\n    tag_119:\n        /* \"#utility.yul\":3126:3214   */\n    tag_118:\n        /* \"#utility.yul\":3234:3244   */\n      dup1\n        /* \"#utility.yul\":3230:3232   */\n      0x40\n        /* \"#utility.yul\":3223:3245   */\n      mstore\n        /* \"#utility.yul\":3013:3251   */\n      pop\n        /* \"#utility.yul\":2970:3251   */\n      pop\n      pop\n      jump\t// out\n        /* \"#utility.yul\":3257:3386   */\n    tag_57:\n        /* \"#utility.yul\":3291:3297   */\n      0x00\n        /* \"#utility.yul\":3318:3338   */\n      tag_121\n      tag_49\n      jump\t// in\n    tag_121:\n        /* \"#utility.yul\":3308:3338   */\n      swap1\n      pop\n        /* \"#utility.yul\":3347:3380   */\n      tag_122\n        /* \"#utility.yul\":3375:3379   */\n      dup3\n        /* \"#utility.yul\":3367:3373   */\n      dup3\n        /* \"#utility.yul\":3347:3380   */\n      tag_56\n      jump\t// in\n    tag_122:\n        /* \"#utility.yul\":3257:3386   */\n      swap2\n      swap1\n      pop\n      jump\t// out\n        /* \"#utility.yul\":3392:3700   */\n    tag_58:\n        /* \"#utility.yul\":3454:3458   */\n      0x00\n        /* \"#utility.yul\":3544:3562   */\n      0xffffffffffffffff\n        /* \"#utility.yul\":3536:3542   */\n      dup3\n        /* \"#utility.yul\":3533:3563   */\n      gt\n        /* \"#utility.yul\":3530:3586   */\n      iszero\n      tag_124\n      jumpi\n        /* \"#utility.yul\":3566:3584   */\n      tag_125\n      tag_55\n      jump\t// in\n    tag_125:\n        /* \"#utility.yul\":3530:3586   */\n    tag_124:\n        /* \"#utility.yul\":3604:3633   */\n      tag_126\n        /* \"#utility.yul\":3626:3632   */\n      dup3\n        /* \"#utility.yul\":3604:3633   */\n      tag_54\n      jump\t// in\n    tag_126:\n        /* \"#utility.yul\":3596:3633   */\n      swap1\n      pop\n        /* \"#utility.yul\":3688:3692   */\n      0x20\n        /* \"#utility.yul\":3682:3686   */\n      dup2\n        /* \"#utility.yul\":3678:3693   */\n      add\n        /* \"#utility.yul\":3670:3693   */\n      swap1\n      pop\n        /* \"#utility.yul\":3392:3700   */\n      swap2\n      swap1\n      pop\n      jump\t// out\n        /* \"#utility.yul\":3706:3852   */\n    tag_59:\n        /* \"#utility.yul\":3803:3809   */\n      dup3\n        /* \"#utility.yul\":3798:3801   */\n      dup2\n        /* \"#utility.yul\":3793:3796   */\n      dup4\n        /* \"#utility.yul\":3780:3810   */\n      calldatacopy\n        /* \"#utility.yul\":3844:3845   */\n      0x00\n        /* \"#utility.yul\":3835:3841   */\n      dup4\n        /* \"#utility.yul\":3830:3833   */\n      dup4\n        /* \"#utility.yul\":3826:3842   */\n      add\n        /* \"#utility.yul\":3819:3846   */\n      mstore\n        /* \"#utility.yul\":3706:3852   */\n      pop\n      pop\n      pop\n      jump\t// out\n        /* \"#utility.yul\":3858:4283   */\n    tag_60:\n        /* \"#utility.yul\":3936:3941   */\n      0x00\n        /* \"#utility.yul\":3961:4027   */\n      tag_129\n        /* \"#utility.yul\":3977:4026   */\n      tag_130\n        /* \"#utility.yul\":4019:4025   */\n      dup5\n        /* \"#utility.yul\":3977:4026   */\n      tag_58\n      jump\t// in\n    tag_130:\n        /* \"#utility.yul\":3961:4027   */\n      tag_57\n      jump\t// in\n    tag_129:\n        /* \"#utility.yul\":3952:4027   */\n      swap1\n      pop\n        /* \"#utility.yul\":4050:4056   */\n      dup3\n        /* \"#utility.yul\":4043:4048   */\n      dup2\n        /* \"#utility.yul\":4036:4057   */\n      mstore\n        /* \"#utility.yul\":4088:4092   */\n      0x20\n        /* \"#utility.yul\":4081:4086   */\n      dup2\n        /* \"#utility.yul\":4077:4093   */\n      add\n        /* \"#utility.yul\":4126:4129   */\n      dup5\n        /* \"#utility.yul\":4117:4123   */\n      dup5\n        /* \"#utility.yul\":4112:4115   */\n      dup5\n        /* \"#utility.yul\":4108:4124   */\n      add\n        /* \"#utility.yul\":4105:4130   */\n      gt\n        /* \"#utility.yul\":4102:4214   */\n      iszero\n      tag_131\n      jumpi\n        /* \"#utility.yul\":4133:4212   */\n      tag_132\n      tag_53\n      jump\t// in\n    tag_132:\n        /* \"#utility.yul\":4102:4214   */\n    tag_131:\n        /* \"#utility.yul\":4223:4277   */\n      tag_133\n        /* \"#utility.yul\":4270:4276   */\n      dup5\n        /* \"#utility.yul\":4265:4268   */\n      dup3\n        /* \"#utility.yul\":4260:4263   */\n      dup6\n        /* \"#utility.yul\":4223:4277   */\n      tag_59\n      jump\t// in\n    tag_133:\n        /* \"#utility.yul\":3942:4283   */\n      pop\n        /* \"#utility.yul\":3858:4283   */\n      swap4\n      swap3\n      pop\n      pop\n      pop\n      jump\t// out\n        /* \"#utility.yul\":4303:4643   */\n    tag_61:\n        /* \"#utility.yul\":4359:4364   */\n      0x00\n        /* \"#utility.yul\":4408:4411   */\n      dup3\n        /* \"#utility.yul\":4401:4405   */\n      0x1f\n        /* \"#utility.yul\":4393:4399   */\n      dup4\n        /* \"#utility.yul\":4389:4406   */\n      add\n        /* \"#utility.yul\":4385:4412   */\n      slt\n        /* \"#utility.yul\":4375:4497   */\n      tag_135\n      jumpi\n        /* \"#utility.yul\":4416:4495   */\n      tag_136\n      tag_52\n      jump\t// in\n    tag_136:\n        /* \"#utility.yul\":4375:4497   */\n    tag_135:\n        /* \"#utility.yul\":4533:4539   */\n      dup2\n        /* \"#utility.yul\":4520:4540   */\n      calldataload\n        /* \"#utility.yul\":4558:4637   */\n      tag_137\n        /* \"#utility.yul\":4633:4636   */\n      dup5\n        /* \"#utility.yul\":4625:4631   */\n      dup3\n        /* \"#utility.yul\":4618:4622   */\n      0x20\n        /* \"#utility.yul\":4610:4616   */\n      dup7\n        /* \"#utility.yul\":4606:4623   */\n      add\n        /* \"#utility.yul\":4558:4637   */\n      tag_60\n      jump\t// in\n    tag_137:\n        /* \"#utility.yul\":4549:4637   */\n      swap2\n      pop\n        /* \"#utility.yul\":4365:4643   */\n      pop\n        /* \"#utility.yul\":4303:4643   */\n      swap3\n      swap2\n      pop\n      pop\n      jump\t// out\n        /* \"#utility.yul\":4649:4771   */\n    tag_62:\n        /* \"#utility.yul\":4722:4746   */\n      tag_139\n        /* \"#utility.yul\":4740:4745   */\n      dup2\n        /* \"#utility.yul\":4722:4746   */\n      tag_44\n      jump\t// in\n    tag_139:\n        /* \"#utility.yul\":4715:4720   */\n      dup2\n        /* \"#utility.yul\":4712:4747   */\n      eq\n        /* \"#utility.yul\":4702:4765   */\n      tag_140\n      jumpi\n        /* \"#utility.yul\":4761:4762   */\n      0x00\n        /* \"#utility.yul\":4758:4759   */\n      dup1\n        /* \"#utility.yul\":4751:4763   */\n      revert\n        /* \"#utility.yul\":4702:4765   */\n    tag_140:\n        /* \"#utility.yul\":4649:4771   */\n      pop\n      jump\t// out\n        /* \"#utility.yul\":4777:4916   */\n    tag_63:\n        /* \"#utility.yul\":4823:4828   */\n      0x00\n        /* \"#utility.yul\":4861:4867   */\n      dup2\n        /* \"#utility.yul\":4848:4868   */\n      calldataload\n        /* \"#utility.yul\":4839:4868   */\n      swap1\n      pop\n        /* \"#utility.yul\":4877:4910   */\n      tag_142\n        /* \"#utility.yul\":4904:4909   */\n      dup2\n        /* \"#utility.yul\":4877:4910   */\n      tag_62\n      jump\t// in\n    tag_142:\n        /* \"#utility.yul\":4777:4916   */\n      swap3\n      swap2\n      pop\n      pop\n      jump\t// out\n        /* \"#utility.yul\":4922:6159   */\n    tag_12:\n        /* \"#utility.yul\":5036:5042   */\n      0x00\n        /* \"#utility.yul\":5044:5050   */\n      dup1\n        /* \"#utility.yul\":5052:5058   */\n      0x00\n        /* \"#utility.yul\":5060:5066   */\n      dup1\n        /* \"#utility.yul\":5068:5074   */\n      0x00\n        /* \"#utility.yul\":5076:5082   */\n      dup1\n        /* \"#utility.yul\":5125:5128   */\n      0xc0\n        /* \"#utility.yul\":5113:5122   */\n      dup8\n        /* \"#utility.yul\":5104:5111   */\n      dup10\n        /* \"#utility.yul\":5100:5123   */\n      sub\n        /* \"#utility.yul\":5096:5129   */\n      slt\n        /* \"#utility.yul\":5093:5213   */\n      iszero\n      tag_144\n      jumpi\n        /* \"#utility.yul\":5132:5211   */\n      tag_145\n      tag_50\n      jump\t// in\n    tag_145:\n        /* \"#utility.yul\":5093:5213   */\n    tag_144:\n        /* \"#utility.yul\":5280:5281   */\n      0x00\n        /* \"#utility.yul\":5269:5278   */\n      dup8\n        /* \"#utility.yul\":5265:5282   */\n      add\n        /* \"#utility.yul\":5252:5283   */\n      calldataload\n        /* \"#utility.yul\":5310:5328   */\n      0xffffffffffffffff\n        /* \"#utility.yul\":5302:5308   */\n      dup2\n        /* \"#utility.yul\":5299:5329   */\n      gt\n        /* \"#utility.yul\":5296:5413   */\n      iszero\n      tag_146\n      jumpi\n        /* \"#utility.yul\":5332:5411   */\n      tag_147\n      tag_51\n      jump\t// in\n    tag_147:\n        /* \"#utility.yul\":5296:5413   */\n    tag_146:\n        /* \"#utility.yul\":5437:5500   */\n      tag_148\n        /* \"#utility.yul\":5492:5499   */\n      dup10\n        /* \"#utility.yul\":5483:5489   */\n      dup3\n        /* \"#utility.yul\":5472:5481   */\n      dup11\n        /* \"#utility.yul\":5468:5490   */\n      add\n        /* \"#utility.yul\":5437:5500   */\n      tag_61\n      jump\t// in\n    tag_148:\n        /* \"#utility.yul\":5427:5500   */\n      swap7\n      pop\n        /* \"#utility.yul\":5223:5510   */\n      pop\n        /* \"#utility.yul\":5549:5551   */\n      0x20\n        /* \"#utility.yul\":5575:5628   */\n      tag_149\n        /* \"#utility.yul\":5620:5627   */\n      dup10\n        /* \"#utility.yul\":5611:5617   */\n      dup3\n        /* \"#utility.yul\":5600:5609   */\n      dup11\n        /* \"#utility.yul\":5596:5618   */\n      add\n        /* \"#utility.yul\":5575:5628   */\n      tag_63\n      jump\t// in\n    tag_149:\n        /* \"#utility.yul\":5565:5628   */\n      swap6\n      pop\n        /* \"#utility.yul\":5520:5638   */\n      pop\n        /* \"#utility.yul\":5677:5679   */\n      0x40\n        /* \"#utility.yul\":5703:5756   */\n      tag_150\n        /* \"#utility.yul\":5748:5755   */\n      dup10\n        /* \"#utility.yul\":5739:5745   */\n      dup3\n        /* \"#utility.yul\":5728:5737   */\n      dup11\n        /* \"#utility.yul\":5724:5746   */\n      add\n        /* \"#utility.yul\":5703:5756   */\n      tag_63\n      jump\t// in\n    tag_150:\n        /* \"#utility.yul\":5693:5756   */\n      swap5\n      pop\n        /* \"#utility.yul\":5648:5766   */\n      pop\n        /* \"#utility.yul\":5805:5807   */\n      0x60\n        /* \"#utility.yul\":5831:5884   */\n      tag_151\n        /* \"#utility.yul\":5876:5883   */\n      dup10\n        /* \"#utility.yul\":5867:5873   */\n      dup3\n        /* \"#utility.yul\":5856:5865   */\n      dup11\n        /* \"#utility.yul\":5852:5874   */\n      add\n        /* \"#utility.yul\":5831:5884   */\n      tag_63\n      jump\t// in\n    tag_151:\n        /* \"#utility.yul\":5821:5884   */\n      swap4\n      pop\n        /* \"#utility.yul\":5776:5894   */\n      pop\n        /* \"#utility.yul\":5933:5936   */\n      0x80\n        /* \"#utility.yul\":5960:6013   */\n      tag_152\n        /* \"#utility.yul\":6005:6012   */\n      dup10\n        /* \"#utility.yul\":5996:6002   */\n      dup3\n        /* \"#utility.yul\":5985:5994   */\n      dup11\n        /* \"#utility.yul\":5981:6003   */\n      add\n        /* \"#utility.yul\":5960:6013   */\n      tag_63\n      jump\t// in\n    tag_152:\n        /* \"#utility.yul\":5950:6013   */\n      swap3\n      pop\n        /* \"#utility.yul\":5904:6023   */\n      pop\n        /* \"#utility.yul\":6062:6065   */\n      0xa0\n        /* \"#utility.yul\":6089:6142   */\n      tag_153\n        /* \"#utility.yul\":6134:6141   */\n      dup10\n        /* \"#utility.yul\":6125:6131   */\n      dup3\n        /* \"#utility.yul\":6114:6123   */\n      dup11\n        /* \"#utility.yul\":6110:6132   */\n      add\n        /* \"#utility.yul\":6089:6142   */\n      tag_63\n      jump\t// in\n    tag_153:\n        /* \"#utility.yul\":6079:6142   */\n      swap2\n      pop\n        /* \"#utility.yul\":6033:6152   */\n      pop\n        /* \"#utility.yul\":4922:6159   */\n      swap3\n      swap6\n      pop\n      swap3\n      swap6\n      pop\n      swap3\n      swap6\n      jump\t// out\n        /* \"#utility.yul\":6165:6494   */\n    tag_16:\n        /* \"#utility.yul\":6224:6230   */\n      0x00\n        /* \"#utility.yul\":6273:6275   */\n      0x20\n        /* \"#utility.yul\":6261:6270   */\n      dup3\n        /* \"#utility.yul\":6252:6259   */\n      dup5\n        /* \"#utility.yul\":6248:6271   */\n      sub\n        /* \"#utility.yul\":6244:6276   */\n      slt\n        /* \"#utility.yul\":6241:6360   */\n      iszero\n      tag_155\n      jumpi\n        /* \"#utility.yul\":6279:6358   */\n      tag_156\n      tag_50\n      jump\t// in\n    tag_156:\n        /* \"#utility.yul\":6241:6360   */\n    tag_155:\n        /* \"#utility.yul\":6399:6400   */\n      0x00\n        /* \"#utility.yul\":6424:6477   */\n      tag_157\n        /* \"#utility.yul\":6469:6476   */\n      dup5\n        /* \"#utility.yul\":6460:6466   */\n      dup3\n        /* \"#utility.yul\":6449:6458   */\n      dup6\n        /* \"#utility.yul\":6445:6467   */\n      add\n        /* \"#utility.yul\":6424:6477   */\n      tag_63\n      jump\t// in\n    tag_157:\n        /* \"#utility.yul\":6414:6477   */\n      swap2\n      pop\n        /* \"#utility.yul\":6370:6487   */\n      pop\n        /* \"#utility.yul\":6165:6494   */\n      swap3\n      swap2\n      pop\n      pop\n      jump\t// out\n        /* \"#utility.yul\":6500:6618   */\n    tag_64:\n        /* \"#utility.yul\":6587:6611   */\n      tag_159\n        /* \"#utility.yul\":6605:6610   */\n      dup2\n        /* \"#utility.yul\":6587:6611   */\n      tag_44\n      jump\t// in\n    tag_159:\n        /* \"#utility.yul\":6582:6585   */\n      dup3\n        /* \"#utility.yul\":6575:6612   */\n      mstore\n        /* \"#utility.yul\":6500:6618   */\n      pop\n      pop\n      jump\t// out\n        /* \"#utility.yul\":6624:6846   */\n    tag_19:\n        /* \"#utility.yul\":6717:6721   */\n      0x00\n        /* \"#utility.yul\":6755:6757   */\n      0x20\n        /* \"#utility.yul\":6744:6753   */\n      dup3\n        /* \"#utility.yul\":6740:6758   */\n      add\n        /* \"#utility.yul\":6732:6758   */\n      swap1\n      pop\n        /* \"#utility.yul\":6768:6839   */\n      tag_161\n        /* \"#utility.yul\":6836:6837   */\n      0x00\n        /* \"#utility.yul\":6825:6834   */\n      dup4\n        /* \"#utility.yul\":6821:6838   */\n      add\n        /* \"#utility.yul\":6812:6818   */\n      dup5\n        /* \"#utility.yul\":6768:6839   */\n      tag_64\n      jump\t// in\n    tag_161:\n        /* \"#utility.yul\":6624:6846   */\n      swap3\n      swap2\n      pop\n      pop\n      jump\t// out\n        /* \"#utility.yul\":6852:7021   */\n    tag_65:\n        /* \"#utility.yul\":6936:6947   */\n      0x00\n        /* \"#utility.yul\":6970:6976   */\n      dup3\n        /* \"#utility.yul\":6965:6968   */\n      dup3\n        /* \"#utility.yul\":6958:6977   */\n      mstore\n        /* \"#utility.yul\":7010:7014   */\n      0x20\n        /* \"#utility.yul\":7005:7008   */\n      dup3\n        /* \"#utility.yul\":7001:7015   */\n      add\n        /* \"#utility.yul\":6986:7015   */\n      swap1\n      pop\n        /* \"#utility.yul\":6852:7021   */\n      swap3\n      swap2\n      pop\n      pop\n      jump\t// out\n        /* \"#utility.yul\":7027:7199   */\n    tag_66:\n        /* \"#utility.yul\":7167:7191   */\n      0x4d6178696d756d206c696d697420726561636865642e00000000000000000000\n        /* \"#utility.yul\":7163:7164   */\n      0x00\n        /* \"#utility.yul\":7155:7161   */\n      dup3\n        /* \"#utility.yul\":7151:7165   */\n      add\n        /* \"#utility.yul\":7144:7192   */\n      mstore\n        /* \"#utility.yul\":7027:7199   */\n      pop\n      jump\t// out\n        /* \"#utility.yul\":7205:7571   */\n    tag_67:\n        /* \"#utility.yul\":7347:7350   */\n      0x00\n        /* \"#utility.yul\":7368:7435   */\n      tag_165\n        /* \"#utility.yul\":7432:7434   */\n      0x16\n        /* \"#utility.yul\":7427:7430   */\n      dup4\n        /* \"#utility.yul\":7368:7435   */\n      tag_65\n      jump\t// in\n    tag_165:\n        /* \"#utility.yul\":7361:7435   */\n      swap2\n      pop\n        /* \"#utility.yul\":7444:7537   */\n      tag_166\n        /* \"#utility.yul\":7533:7536   */\n      dup3\n        /* \"#utility.yul\":7444:7537   */\n      tag_66\n      jump\t// in\n    tag_166:\n        /* \"#utility.yul\":7562:7564   */\n      0x20\n        /* \"#utility.yul\":7557:7560   */\n      dup3\n        /* \"#utility.yul\":7553:7565   */\n      add\n        /* \"#utility.yul\":7546:7565   */\n      swap1\n      pop\n        /* \"#utility.yul\":7205:7571   */\n      swap2\n      swap1\n      pop\n      jump\t// out\n        /* \"#utility.yul\":7577:7996   */\n    tag_26:\n        /* \"#utility.yul\":7743:7747   */\n      0x00\n        /* \"#utility.yul\":7781:7783   */\n      0x20\n        /* \"#utility.yul\":7770:7779   */\n      dup3\n        /* \"#utility.yul\":7766:7784   */\n      add\n        /* \"#utility.yul\":7758:7784   */\n      swap1\n      pop\n        /* \"#utility.yul\":7830:7839   */\n      dup2\n        /* \"#utility.yul\":7824:7828   */\n      dup2\n        /* \"#utility.yul\":7820:7840   */\n      sub\n        /* \"#utility.yul\":7816:7817   */\n      0x00\n        /* \"#utility.yul\":7805:7814   */\n      dup4\n        /* \"#utility.yul\":7801:7818   */\n      add\n        /* \"#utility.yul\":7794:7841   */\n      mstore\n        /* \"#utility.yul\":7858:7989   */\n      tag_168\n        /* \"#utility.yul\":7984:7988   */\n      dup2\n        /* \"#utility.yul\":7858:7989   */\n      tag_67\n      jump\t// in\n    tag_168:\n        /* \"#utility.yul\":7850:7989   */\n      swap1\n      pop\n        /* \"#utility.yul\":7577:7996   */\n      swap2\n      swap1\n      pop\n      jump\t// out\n        /* \"#utility.yul\":8002:8182   */\n    tag_68:\n        /* \"#utility.yul\":8050:8127   */\n      0x4e487b7100000000000000000000000000000000000000000000000000000000\n        /* \"#utility.yul\":8047:8048   */\n      0x00\n        /* \"#utility.yul\":8040:8128   */\n      mstore\n        /* \"#utility.yul\":8147:8151   */\n      0x11\n        /* \"#utility.yul\":8144:8145   */\n      0x04\n        /* \"#utility.yul\":8137:8152   */\n      mstore\n        /* \"#utility.yul\":8171:8175   */\n      0x24\n        /* \"#utility.yul\":8168:8169   */\n      0x00\n        /* \"#utility.yul\":8161:8176   */\n      revert\n        /* \"#utility.yul\":8188:8379   */\n    tag_28:\n        /* \"#utility.yul\":8228:8231   */\n      0x00\n        /* \"#utility.yul\":8247:8267   */\n      tag_171\n        /* \"#utility.yul\":8265:8266   */\n      dup3\n        /* \"#utility.yul\":8247:8267   */\n      tag_44\n      jump\t// in\n    tag_171:\n        /* \"#utility.yul\":8242:8267   */\n      swap2\n      pop\n        /* \"#utility.yul\":8281:8301   */\n      tag_172\n        /* \"#utility.yul\":8299:8300   */\n      dup4\n        /* \"#utility.yul\":8281:8301   */\n      tag_44\n      jump\t// in\n    tag_172:\n        /* \"#utility.yul\":8276:8301   */\n      swap3\n      pop\n        /* \"#utility.yul\":8324:8325   */\n      dup3\n        /* \"#utility.yul\":8321:8322   */\n      dup3\n        /* \"#utility.yul\":8317:8326   */\n      add\n        /* \"#utility.yul\":8310:8326   */\n      swap1\n      pop\n        /* \"#utility.yul\":8345:8348   */\n      dup1\n        /* \"#utility.yul\":8342:8343   */\n      dup3\n        /* \"#utility.yul\":8339:8349   */\n      gt\n        /* \"#utility.yul\":8336:8372   */\n      iszero\n      tag_173\n      jumpi\n        /* \"#utility.yul\":8352:8370   */\n      tag_174\n      tag_68\n      jump\t// in\n    tag_174:\n        /* \"#utility.yul\":8336:8372   */\n    tag_173:\n        /* \"#utility.yul\":8188:8379   */\n      swap3\n      swap2\n      pop\n      pop\n      jump\t// out\n        /* \"#utility.yul\":8385:8565   */\n    tag_69:\n        /* \"#utility.yul\":8433:8510   */\n      0x4e487b7100000000000000000000000000000000000000000000000000000000\n        /* \"#utility.yul\":8430:8431   */\n      0x00\n        /* \"#utility.yul\":8423:8511   */\n      mstore\n        /* \"#utility.yul\":8530:8534   */\n      0x12\n        /* \"#utility.yul\":8527:8528   */\n      0x04\n        /* \"#utility.yul\":8520:8535   */\n      mstore\n        /* \"#utility.yul\":8554:8558   */\n      0x24\n        /* \"#utility.yul\":8551:8552   */\n      0x00\n        /* \"#utility.yul\":8544:8559   */\n      revert\n        /* \"#utility.yul\":8571:8756   */\n    tag_31:\n        /* \"#utility.yul\":8611:8612   */\n      0x00\n        /* \"#utility.yul\":8628:8648   */\n      tag_177\n        /* \"#utility.yul\":8646:8647   */\n      dup3\n        /* \"#utility.yul\":8628:8648   */\n      tag_44\n      jump\t// in\n    tag_177:\n        /* \"#utility.yul\":8623:8648   */\n      swap2\n      pop\n        /* \"#utility.yul\":8662:8682   */\n      tag_178\n        /* \"#utility.yul\":8680:8681   */\n      dup4\n        /* \"#utility.yul\":8662:8682   */\n      tag_44\n      jump\t// in\n    tag_178:\n        /* \"#utility.yul\":8657:8682   */\n      swap3\n      pop\n        /* \"#utility.yul\":8701:8702   */\n      dup3\n        /* \"#utility.yul\":8691:8726   */\n      tag_179\n      jumpi\n        /* \"#utility.yul\":8706:8724   */\n      tag_180\n      tag_69\n      jump\t// in\n    tag_180:\n        /* \"#utility.yul\":8691:8726   */\n    tag_179:\n        /* \"#utility.yul\":8748:8749   */\n      dup3\n        /* \"#utility.yul\":8745:8746   */\n      dup3\n        /* \"#utility.yul\":8741:8750   */\n      div\n        /* \"#utility.yul\":8736:8750   */\n      swap1\n      pop\n        /* \"#utility.yul\":8571:8756   */\n      swap3\n      swap2\n      pop\n      pop\n      jump\t// out\n        /* \"#utility.yul\":8762:8861   */\n    tag_70:\n        /* \"#utility.yul\":8814:8820   */\n      0x00\n        /* \"#utility.yul\":8848:8853   */\n      dup2\n        /* \"#utility.yul\":8842:8854   */\n      mload\n        /* \"#utility.yul\":8832:8854   */\n      swap1\n      pop\n        /* \"#utility.yul\":8762:8861   */\n      swap2\n      swap1\n      pop\n      jump\t// out\n        /* \"#utility.yul\":8867:9047   */\n    tag_71:\n        /* \"#utility.yul\":8915:8992   */\n      0x4e487b7100000000000000000000000000000000000000000000000000000000\n        /* \"#utility.yul\":8912:8913   */\n      0x00\n        /* \"#utility.yul\":8905:8993   */\n      mstore\n        /* \"#utility.yul\":9012:9016   */\n      0x22\n        /* \"#utility.yul\":9009:9010   */\n      0x04\n        /* \"#utility.yul\":9002:9017   */\n      mstore\n        /* \"#utility.yul\":9036:9040   */\n      0x24\n        /* \"#utility.yul\":9033:9034   */\n      0x00\n        /* \"#utility.yul\":9026:9041   */\n      revert\n        /* \"#utility.yul\":9053:9373   */\n    tag_72:\n        /* \"#utility.yul\":9097:9103   */\n      0x00\n        /* \"#utility.yul\":9134:9135   */\n      0x02\n        /* \"#utility.yul\":9128:9132   */\n      dup3\n        /* \"#utility.yul\":9124:9136   */\n      div\n        /* \"#utility.yul\":9114:9136   */\n      swap1\n      pop\n        /* \"#utility.yul\":9181:9182   */\n      0x01\n        /* \"#utility.yul\":9175:9179   */\n      dup3\n        /* \"#utility.yul\":9171:9183   */\n      and\n        /* \"#utility.yul\":9202:9220   */\n      dup1\n        /* \"#utility.yul\":9192:9273   */\n      tag_184\n      jumpi\n        /* \"#utility.yul\":9258:9262   */\n      0x7f\n        /* \"#utility.yul\":9250:9256   */\n      dup3\n        /* \"#utility.yul\":9246:9263   */\n      and\n        /* \"#utility.yul\":9236:9263   */\n      swap2\n      pop\n        /* \"#utility.yul\":9192:9273   */\n    tag_184:\n        /* \"#utility.yul\":9320:9322   */\n      0x20\n        /* \"#utility.yul\":9312:9318   */\n      dup3\n        /* \"#utility.yul\":9309:9323   */\n      lt\n        /* \"#utility.yul\":9289:9307   */\n      dup2\n        /* \"#utility.yul\":9286:9324   */\n      sub\n        /* \"#utility.yul\":9283:9367   */\n      tag_185\n      jumpi\n        /* \"#utility.yul\":9339:9357   */\n      tag_186\n      tag_71\n      jump\t// in\n    tag_186:\n        /* \"#utility.yul\":9283:9367   */\n    tag_185:\n        /* \"#utility.yul\":9104:9373   */\n      pop\n        /* \"#utility.yul\":9053:9373   */\n      swap2\n      swap1\n      pop\n      jump\t// out\n        /* \"#utility.yul\":9379:9520   */\n    tag_73:\n        /* \"#utility.yul\":9428:9432   */\n      0x00\n        /* \"#utility.yul\":9451:9454   */\n      dup2\n        /* \"#utility.yul\":9443:9454   */\n      swap1\n      pop\n        /* \"#utility.yul\":9474:9477   */\n      dup2\n        /* \"#utility.yul\":9471:9472   */\n      0x00\n        /* \"#utility.yul\":9464:9478   */\n      mstore\n        /* \"#utility.yul\":9508:9512   */\n      0x20\n        /* \"#utility.yul\":9505:9506   */\n      0x00\n        /* \"#utility.yul\":9495:9513   */\n      keccak256\n        /* \"#utility.yul\":9487:9513   */\n      swap1\n      pop\n        /* \"#utility.yul\":9379:9520   */\n      swap2\n      swap1\n      pop\n      jump\t// out\n        /* \"#utility.yul\":9526:9619   */\n    tag_74:\n        /* \"#utility.yul\":9563:9569   */\n      0x00\n        /* \"#utility.yul\":9610:9612   */\n      0x20\n        /* \"#utility.yul\":9605:9607   */\n      0x1f\n        /* \"#utility.yul\":9598:9603   */\n      dup4\n        /* \"#utility.yul\":9594:9608   */\n      add\n        /* \"#utility.yul\":9590:9613   */\n      div\n        /* \"#utility.yul\":9580:9613   */\n      swap1\n      pop\n        /* \"#utility.yul\":9526:9619   */\n      swap2\n      swap1\n      pop\n      jump\t// out\n        /* \"#utility.yul\":9625:9732   */\n    tag_75:\n        /* \"#utility.yul\":9669:9677   */\n      0x00\n        /* \"#utility.yul\":9719:9724   */\n      dup3\n        /* \"#utility.yul\":9713:9717   */\n      dup3\n        /* \"#utility.yul\":9709:9725   */\n      shl\n        /* \"#utility.yul\":9688:9725   */\n      swap1\n      pop\n        /* \"#utility.yul\":9625:9732   */\n      swap3\n      swap2\n      pop\n      pop\n      jump\t// out\n        /* \"#utility.yul\":9738:10131   */\n    tag_76:\n        /* \"#utility.yul\":9807:9813   */\n      0x00\n        /* \"#utility.yul\":9857:9858   */\n      0x08\n        /* \"#utility.yul\":9845:9855   */\n      dup4\n        /* \"#utility.yul\":9841:9859   */\n      mul\n        /* \"#utility.yul\":9880:9977   */\n      tag_191\n        /* \"#utility.yul\":9910:9976   */\n      0xffffffffffffffffffffffffffffffffffffffffffffffffffffffffffffffff\n        /* \"#utility.yul\":9899:9908   */\n      dup3\n        /* \"#utility.yul\":9880:9977   */\n      tag_75\n      jump\t// in\n    tag_191:\n        /* \"#utility.yul\":9998:10037   */\n      tag_192\n        /* \"#utility.yul\":10028:10036   */\n      dup7\n        /* \"#utility.yul\":10017:10026   */\n      dup4\n        /* \"#utility.yul\":9998:10037   */\n      tag_75\n      jump\t// in\n    tag_192:\n        /* \"#utility.yul\":9986:10037   */\n      swap6\n      pop\n        /* \"#utility.yul\":10070:10074   */\n      dup1\n        /* \"#utility.yul\":10066:10075   */\n      not\n        /* \"#utility.yul\":10059:10064   */\n      dup5\n        /* \"#utility.yul\":10055:10076   */\n      and\n        /* \"#utility.yul\":10046:10076   */\n      swap4\n      pop\n        /* \"#utility.yul\":10119:10123   */\n      dup1\n        /* \"#utility.yul\":10109:10117   */\n      dup7\n        /* \"#utility.yul\":10105:10124   */\n      and\n        /* \"#utility.yul\":10098:10103   */\n      dup5\n        /* \"#utility.yul\":10095:10125   */\n      or\n        /* \"#utility.yul\":10085:10125   */\n      swap3\n      pop\n        /* \"#utility.yul\":9814:10131   */\n      pop\n      pop\n        /* \"#utility.yul\":9738:10131   */\n      swap4\n      swap3\n      pop\n      pop\n      pop\n      jump\t// out\n        /* \"#utility.yul\":10137:10197   */\n    tag_77:\n        /* \"#utility.yul\":10165:10168   */\n      0x00\n        /* \"#utility.yul\":10186:10191   */\n      dup2\n        /* \"#utility.yul\":10179:10191   */\n      swap1\n      pop\n        /* \"#utility.yul\":10137:10197   */\n      swap2\n      swap1\n      pop\n      jump\t// out\n        /* \"#utility.yul\":10203:10345   */\n    tag_78:\n        /* \"#utility.yul\":10253:10262   */\n      0x00\n        /* \"#utility.yul\":10286:10339   */\n      tag_195\n        /* \"#utility.yul\":10304:10338   */\n      tag_196\n        /* \"#utility.yul\":10313:10337   */\n      tag_197\n        /* \"#utility.yul\":10331:10336   */\n      dup5\n        /* \"#utility.yul\":10313:10337   */\n      tag_44\n      jump\t// in\n    tag_197:\n        /* \"#utility.yul\":10304:10338   */\n      tag_77\n      jump\t// in\n    tag_196:\n        /* \"#utility.yul\":10286:10339   */\n      tag_44\n      jump\t// in\n    tag_195:\n        /* \"#utility.yul\":10273:10339   */\n      swap1\n      pop\n        /* \"#utility.yul\":10203:10345   */\n      swap2\n      swap1\n      pop\n      jump\t// out\n        /* \"#utility.yul\":10351:10426   */\n    tag_79:\n        /* \"#utility.yul\":10394:10397   */\n      0x00\n        /* \"#utility.yul\":10415:10420   */\n      dup2\n        /* \"#utility.yul\":10408:10420   */\n      swap1\n      pop\n        /* \"#utility.yul\":10351:10426   */\n      swap2\n      swap1\n      pop\n      jump\t// out\n        /* \"#utility.yul\":10432:10701   */\n    tag_80:\n        /* \"#utility.yul\":10542:10581   */\n      tag_200\n        /* \"#utility.yul\":10573:10580   */\n      dup4\n        /* \"#utility.yul\":10542:10581   */\n      tag_78\n      jump\t// in\n    tag_200:\n        /* \"#utility.yul\":10603:10694   */\n      tag_201\n        /* \"#utility.yul\":10652:10693   */\n      tag_202\n        /* \"#utility.yul\":10676:10692   */\n      dup3\n        /* \"#utility.yul\":10652:10693   */\n      tag_79\n      jump\t// in\n    tag_202:\n        /* \"#utility.yul\":10644:10650   */\n      dup5\n        /* \"#utility.yul\":10637:10641   */\n      dup5\n        /* \"#utility.yul\":10631:10642   */\n      sload\n        /* \"#utility.yul\":10603:10694   */\n      tag_76\n      jump\t// in\n    tag_201:\n        /* \"#utility.yul\":10597:10601   */\n      dup3\n        /* \"#utility.yul\":10590:10695   */\n      sstore\n        /* \"#utility.yul\":10508:10701   */\n      pop\n        /* \"#utility.yul\":10432:10701   */\n      pop\n      pop\n      pop\n      jump\t// out\n        /* \"#utility.yul\":10707:10780   */\n    tag_81:\n        /* \"#utility.yul\":10752:10755   */\n      0x00\n        /* \"#utility.yul\":10707:10780   */\n      swap1\n      jump\t// out\n        /* \"#utility.yul\":10786:10975   */\n    tag_82:\n        /* \"#utility.yul\":10863:10895   */\n      tag_205\n      tag_81\n      jump\t// in\n    tag_205:\n        /* \"#utility.yul\":10904:10969   */\n      tag_206\n        /* \"#utility.yul\":10962:10968   */\n      dup2\n        /* \"#utility.yul\":10954:10960   */\n      dup5\n        /* \"#utility.yul\":10948:10952   */\n      dup5\n        /* \"#utility.yul\":10904:10969   */\n      tag_80\n      jump\t// in\n    tag_206:\n        /* \"#utility.yul\":10839:10975   */\n      pop\n        /* \"#utility.yul\":10786:10975   */\n      pop\n      pop\n      jump\t// out\n        /* \"#utility.yul\":10981:11167   */\n    tag_83:\n        /* \"#utility.yul\":11041:11161   */\n    tag_208:\n        /* \"#utility.yul\":11058:11061   */\n      dup2\n        /* \"#utility.yul\":11051:11056   */\n      dup2\n        /* \"#utility.yul\":11048:11062   */\n      lt\n        /* \"#utility.yul\":11041:11161   */\n      iszero\n      tag_210\n      jumpi\n        /* \"#utility.yul\":11112:11151   */\n      tag_211\n        /* \"#utility.yul\":11149:11150   */\n      0x00\n        /* \"#utility.yul\":11142:11147   */\n      dup3\n        /* \"#utility.yul\":11112:11151   */\n      tag_82\n      jump\t// in\n    tag_211:\n        /* \"#utility.yul\":11085:11086   */\n      0x01\n        /* \"#utility.yul\":11078:11083   */\n      dup2\n        /* \"#utility.yul\":11074:11087   */\n      add\n        /* \"#utility.yul\":11065:11087   */\n      swap1\n      pop\n        /* \"#utility.yul\":11041:11161   */\n      jump(tag_208)\n    tag_210:\n        /* \"#utility.yul\":10981:11167   */\n      pop\n      pop\n      jump\t// out\n        /* \"#utility.yul\":11173:11716   */\n    tag_84:\n        /* \"#utility.yul\":11274:11276   */\n      0x1f\n        /* \"#utility.yul\":11269:11272   */\n      dup3\n        /* \"#utility.yul\":11266:11277   */\n      gt\n        /* \"#utility.yul\":11263:11709   */\n      iszero\n      tag_213\n      jumpi\n        /* \"#utility.yul\":11308:11346   */\n      tag_214\n        /* \"#utility.yul\":11340:11345   */\n      dup2\n        /* \"#utility.yul\":11308:11346   */\n      tag_73\n      jump\t// in\n    tag_214:\n        /* \"#utility.yul\":11392:11421   */\n      tag_215\n        /* \"#utility.yul\":11410:11420   */\n      dup5\n        /* \"#utility.yul\":11392:11421   */\n      tag_74\n      jump\t// in\n    tag_215:\n        /* \"#utility.yul\":11382:11390   */\n      dup2\n        /* \"#utility.yul\":11378:11422   */\n      add\n        /* \"#utility.yul\":11575:11577   */\n      0x20\n        /* \"#utility.yul\":11563:11573   */\n      dup6\n        /* \"#utility.yul\":11560:11578   */\n      lt\n        /* \"#utility.yul\":11557:11606   */\n      iszero\n      tag_216\n      jumpi\n        /* \"#utility.yul\":11596:11604   */\n      dup2\n        /* \"#utility.yul\":11581:11604   */\n      swap1\n      pop\n        /* \"#utility.yul\":11557:11606   */\n    tag_216:\n        /* \"#utility.yul\":11619:11699   */\n      tag_217\n        /* \"#utility.yul\":11675:11697   */\n      tag_218\n        /* \"#utility.yul\":11693:11696   */\n      dup6\n        /* \"#utility.yul\":11675:11697   */\n      tag_74\n      jump\t// in\n    tag_218:\n        /* \"#utility.yul\":11665:11673   */\n      dup4\n        /* \"#utility.yul\":11661:11698   */\n      add\n        /* \"#utility.yul\":11648:11659   */\n      dup3\n        /* \"#utility.yul\":11619:11699   */\n      tag_83\n      jump\t// in\n    tag_217:\n        /* \"#utility.yul\":11278:11709   */\n      pop\n      pop\n        /* \"#utility.yul\":11263:11709   */\n    tag_213:\n        /* \"#utility.yul\":11173:11716   */\n      pop\n      pop\n      pop\n      jump\t// out\n        /* \"#utility.yul\":11722:11839   */\n    tag_85:\n        /* \"#utility.yul\":11776:11784   */\n      0x00\n        /* \"#utility.yul\":11826:11831   */\n      dup3\n        /* \"#utility.yul\":11820:11824   */\n      dup3\n        /* \"#utility.yul\":11816:11832   */\n      shr\n        /* \"#utility.yul\":11795:11832   */\n      swap1\n      pop\n        /* \"#utility.yul\":11722:11839   */\n      swap3\n      swap2\n      pop\n      pop\n      jump\t// out\n        /* \"#utility.yul\":11845:12014   */\n    tag_86:\n        /* \"#utility.yul\":11889:11895   */\n      0x00\n        /* \"#utility.yul\":11922:11973   */\n      tag_221\n        /* \"#utility.yul\":11970:11971   */\n      0x00\n        /* \"#utility.yul\":11966:11972   */\n      not\n        /* \"#utility.yul\":11958:11963   */\n      dup5\n        /* \"#utility.yul\":11955:11956   */\n      0x08\n        /* \"#utility.yul\":11951:11964   */\n      mul\n        /* \"#utility.yul\":11922:11973   */\n      tag_85\n      jump\t// in\n    tag_221:\n        /* \"#utility.yul\":11918:11974   */\n      not\n        /* \"#utility.yul\":12003:12007   */\n      dup1\n        /* \"#utility.yul\":11997:12001   */\n      dup4\n        /* \"#utility.yul\":11993:12008   */\n      and\n        /* \"#utility.yul\":11983:12008   */\n      swap2\n      pop\n        /* \"#utility.yul\":11896:12014   */\n      pop\n        /* \"#utility.yul\":11845:12014   */\n      swap3\n      swap2\n      pop\n      pop\n      jump\t// out\n        /* \"#utility.yul\":12019:12314   */\n    tag_87:\n        /* \"#utility.yul\":12095:12099   */\n      0x00\n        /* \"#utility.yul\":12241:12270   */\n      tag_223\n        /* \"#utility.yul\":12266:12269   */\n      dup4\n        /* \"#utility.yul\":12260:12264   */\n      dup4\n        /* \"#utility.yul\":12241:12270   */\n      tag_86\n      jump\t// in\n    tag_223:\n        /* \"#utility.yul\":12233:12270   */\n      swap2\n      pop\n        /* \"#utility.yul\":12303:12306   */\n      dup3\n        /* \"#utility.yul\":12300:12301   */\n      0x02\n        /* \"#utility.yul\":12296:12307   */\n      mul\n        /* \"#utility.yul\":12290:12294   */\n      dup3\n        /* \"#utility.yul\":12287:12308   */\n      or\n        /* \"#utility.yul\":12279:12308   */\n      swap1\n      pop\n        /* \"#utility.yul\":12019:12314   */\n      swap3\n      swap2\n      pop\n      pop\n      jump\t// out\n        /* \"#utility.yul\":12319:13714   */\n    tag_35:\n        /* \"#utility.yul\":12436:12473   */\n      tag_225\n        /* \"#utility.yul\":12469:12472   */\n      dup3\n        /* \"#utility.yul\":12436:12473   */\n      tag_70\n      jump\t// in\n    tag_225:\n        /* \"#utility.yul\":12538:12556   */\n      0xffffffffffffffff\n        /* \"#utility.yul\":12530:12536   */\n      dup2\n        /* \"#utility.yul\":12527:12557   */\n      gt\n        /* \"#utility.yul\":12524:12580   */\n      iszero\n      tag_226\n      jumpi\n        /* \"#utility.yul\":12560:12578   */\n      tag_227\n      tag_55\n      jump\t// in\n    tag_227:\n        /* \"#utility.yul\":12524:12580   */\n    tag_226:\n        /* \"#utility.yul\":12604:12642   */\n      tag_228\n        /* \"#utility.yul\":12636:12640   */\n      dup3\n        /* \"#utility.yul\":12630:12641   */\n      sload\n        /* \"#utility.yul\":12604:12642   */\n      tag_72\n      jump\t// in\n    tag_228:\n        /* \"#utility.yul\":12689:12756   */\n      tag_229\n        /* \"#utility.yul\":12749:12755   */\n      dup3\n        /* \"#utility.yul\":12741:12747   */\n      dup3\n        /* \"#utility.yul\":12735:12739   */\n      dup6\n        /* \"#utility.yul\":12689:12756   */\n      tag_84\n      jump\t// in\n    tag_229:\n        /* \"#utility.yul\":12783:12784   */\n      0x00\n        /* \"#utility.yul\":12807:12811   */\n      0x20\n        /* \"#utility.yul\":12794:12811   */\n      swap1\n      pop\n        /* \"#utility.yul\":12839:12841   */\n      0x1f\n        /* \"#utility.yul\":12831:12837   */\n      dup4\n        /* \"#utility.yul\":12828:12842   */\n      gt\n        /* \"#utility.yul\":12856:12857   */\n      0x01\n        /* \"#utility.yul\":12851:13469   */\n      dup2\n      eq\n      tag_231\n      jumpi\n        /* \"#utility.yul\":13513:13514   */\n      0x00\n        /* \"#utility.yul\":13530:13536   */\n      dup5\n        /* \"#utility.yul\":13527:13604   */\n      iszero\n      tag_232\n      jumpi\n        /* \"#utility.yul\":13579:13588   */\n      dup3\n        /* \"#utility.yul\":13574:13577   */\n      dup8\n        /* \"#utility.yul\":13570:13589   */\n      add\n        /* \"#utility.yul\":13564:13590   */\n      mload\n        /* \"#utility.yul\":13555:13590   */\n      swap1\n      pop\n        /* \"#utility.yul\":13527:13604   */\n    tag_232:\n        /* \"#utility.yul\":13630:13697   */\n      tag_233\n        /* \"#utility.yul\":13690:13696   */\n      dup6\n        /* \"#utility.yul\":13683:13688   */\n      dup3\n        /* \"#utility.yul\":13630:13697   */\n      tag_87\n      jump\t// in\n    tag_233:\n        /* \"#utility.yul\":13624:13628   */\n      dup7\n        /* \"#utility.yul\":13617:13698   */\n      sstore\n        /* \"#utility.yul\":13486:13708   */\n      pop\n        /* \"#utility.yul\":12821:13708   */\n      jump(tag_230)\n        /* \"#utility.yul\":12851:13469   */\n    tag_231:\n        /* \"#utility.yul\":12903:12907   */\n      0x1f\n        /* \"#utility.yul\":12899:12908   */\n      not\n        /* \"#utility.yul\":12891:12897   */\n      dup5\n        /* \"#utility.yul\":12887:12909   */\n      and\n        /* \"#utility.yul\":12937:12974   */\n      tag_234\n        /* \"#utility.yul\":12969:12973   */\n      dup7\n        /* \"#utility.yul\":12937:12974   */\n      tag_73\n      jump\t// in\n    tag_234:\n        /* \"#utility.yul\":12996:12997   */\n      0x00\n        /* \"#utility.yul\":13010:13218   */\n    tag_235:\n        /* \"#utility.yul\":13024:13031   */\n      dup3\n        /* \"#utility.yul\":13021:13022   */\n      dup2\n        /* \"#utility.yul\":13018:13032   */\n      lt\n        /* \"#utility.yul\":13010:13218   */\n      iszero\n      tag_237\n      jumpi\n        /* \"#utility.yul\":13103:13112   */\n      dup5\n        /* \"#utility.yul\":13098:13101   */\n      dup10\n        /* \"#utility.yul\":13094:13113   */\n      add\n        /* \"#utility.yul\":13088:13114   */\n      mload\n        /* \"#utility.yul\":13080:13086   */\n      dup3\n        /* \"#utility.yul\":13073:13115   */\n      sstore\n        /* \"#utility.yul\":13154:13155   */\n      0x01\n        /* \"#utility.yul\":13146:13152   */\n      dup3\n        /* \"#utility.yul\":13142:13156   */\n      add\n        /* \"#utility.yul\":13132:13156   */\n      swap2\n      pop\n        /* \"#utility.yul\":13201:13203   */\n      0x20\n        /* \"#utility.yul\":13190:13199   */\n      dup6\n        /* \"#utility.yul\":13186:13204   */\n      add\n        /* \"#utility.yul\":13173:13204   */\n      swap5\n      pop\n        /* \"#utility.yul\":13047:13051   */\n      0x20\n        /* \"#utility.yul\":13044:13045   */\n      dup2\n        /* \"#utility.yul\":13040:13052   */\n      add\n        /* \"#utility.yul\":13035:13052   */\n      swap1\n      pop\n        /* \"#utility.yul\":13010:13218   */\n      jump(tag_235)\n    tag_237:\n        /* \"#utility.yul\":13246:13252   */\n      dup7\n        /* \"#utility.yul\":13237:13244   */\n      dup4\n        /* \"#utility.yul\":13234:13253   */\n      lt\n        /* \"#utility.yul\":13231:13410   */\n      iszero\n      tag_238\n      jumpi\n        /* \"#utility.yul\":13304:13313   */\n      dup5\n        /* \"#utility.yul\":13299:13302   */\n      dup10\n        /* \"#utility.yul\":13295:13314   */\n      add\n        /* \"#utility.yul\":13289:13315   */\n      mload\n        /* \"#utility.yul\":13347:13395   */\n      tag_239\n        /* \"#utility.yul\":13389:13393   */\n      0x1f\n        /* \"#utility.yul\":13381:13387   */\n      dup10\n        /* \"#utility.yul\":13377:13394   */\n      and\n        /* \"#utility.yul\":13366:13375   */\n      dup3\n        /* \"#utility.yul\":13347:13395   */\n      tag_86\n      jump\t// in\n    tag_239:\n        /* \"#utility.yul\":13339:13345   */\n      dup4\n        /* \"#utility.yul\":13332:13396   */\n      sstore\n        /* \"#utility.yul\":13254:13410   */\n      pop\n        /* \"#utility.yul\":13231:13410   */\n    tag_238:\n        /* \"#utility.yul\":13456:13457   */\n      0x01\n        /* \"#utility.yul\":13452:13453   */\n      0x02\n        /* \"#utility.yul\":13444:13450   */\n      dup9\n        /* \"#utility.yul\":13440:13454   */\n      mul\n        /* \"#utility.yul\":13436:13458   */\n      add\n        /* \"#utility.yul\":13430:13434   */\n      dup9\n        /* \"#utility.yul\":13423:13459   */\n      sstore\n        /* \"#utility.yul\":12858:13469   */\n      pop\n      pop\n      pop\n        /* \"#utility.yul\":12821:13708   */\n    tag_230:\n      pop\n        /* \"#utility.yul\":12411:13714   */\n      pop\n      pop\n      pop\n        /* \"#utility.yul\":12319:13714   */\n      pop\n      pop\n      jump\t// out\n        /* \"#utility.yul\":13720:13900   */\n    tag_39:\n        /* \"#utility.yul\":13768:13845   */\n      0x4e487b7100000000000000000000000000000000000000000000000000000000\n        /* \"#utility.yul\":13765:13766   */\n      0x00\n        /* \"#utility.yul\":13758:13846   */\n      mstore\n        /* \"#utility.yul\":13865:13869   */\n      0x32\n        /* \"#utility.yul\":13862:13863   */\n      0x04\n        /* \"#utility.yul\":13855:13870   */\n      mstore\n        /* \"#utility.yul\":13889:13893   */\n      0x24\n        /* \"#utility.yul\":13886:13887   */\n      0x00\n        /* \"#utility.yul\":13879:13894   */\n      revert\n\n    auxdata: 0xa2646970667358221220e9fe7414601a84cef7015365c194509be6618563382c86451df346c996908cea64736f6c63430008110033\n}\n",
				"bytecode": {
					"linkReferences": {},
					"object": "608060405234801561001057600080fd5b50610aa2806100206000396000f3fe608060405234801561001057600080fd5b50600436106100415760003560e01c80634ed00023146100465780637beb8d6c146100645780639e2986e514610080575b600080fd5b61004e6100b0565b60405161005b919061036c565b60405180910390f35b61007e60048036038101906100799190610514565b610108565b005b61009a600480360381019061009591906105bd565b610276565b6040516100a791906105f9565b60405180910390f35b606060018054806020026020016040519081016040528092919081815260200182805480156100fe57602002820191906000526020600020905b8154815260200190600101908083116100ea575b5050505050905090565b600660008054905010610150576040517f08c379a000000000000000000000000000000000000000000000000000000000815260040161014790610671565b60405180910390fd5b60006040518060e001604052808881526020018781526020018681526020018581526020018481526020018381526020016000815250905060038160600151826040015183602001516101a391906106c0565b6101ad91906106c0565b6101b79190610723565b8160c001818152505060018160c0015190806001815401808255809150506001900390600052602060002001600090919091909150556000819080600181540180825580915050600190039060005260206000209060070201600090919091909150600082015181600001908161022e919061096b565b506020820151816001015560408201518160020155606082015181600301556080820151816004015560a0820151816005015560c08201518160060155505050505050505050565b600080828154811061028b5761028a610a3d565b5b9060005260206000209060070201600601549050919050565b600081519050919050565b600082825260208201905092915050565b6000819050602082019050919050565b6000819050919050565b6102e3816102d0565b82525050565b60006102f583836102da565b60208301905092915050565b6000602082019050919050565b6000610319826102a4565b61032381856102af565b935061032e836102c0565b8060005b8381101561035f57815161034688826102e9565b975061035183610301565b925050600181019050610332565b5085935050505092915050565b60006020820190508181036000830152610386818461030e565b905092915050565b6000604051905090565b600080fd5b600080fd5b600080fd5b600080fd5b6000601f19601f8301169050919050565b7f4e487b7100000000000000000000000000000000000000000000000000000000600052604160045260246000fd5b6103f5826103ac565b810181811067ffffffffffffffff82111715610414576104136103bd565b5b80604052505050565b600061042761038e565b905061043382826103ec565b919050565b600067ffffffffffffffff821115610453576104526103bd565b5b61045c826103ac565b9050602081019050919050565b82818337600083830152505050565b600061048b61048684610438565b61041d565b9050828152602081018484840111156104a7576104a66103a7565b5b6104b2848285610469565b509392505050565b600082601f8301126104cf576104ce6103a2565b5b81356104df848260208601610478565b91505092915050565b6104f1816102d0565b81146104fc57600080fd5b50565b60008135905061050e816104e8565b92915050565b60008060008060008060c0878903121561053157610530610398565b5b600087013567ffffffffffffffff81111561054f5761054e61039d565b5b61055b89828a016104ba565b965050602061056c89828a016104ff565b955050604061057d89828a016104ff565b945050606061058e89828a016104ff565b935050608061059f89828a016104ff565b92505060a06105b089828a016104ff565b9150509295509295509295565b6000602082840312156105d3576105d2610398565b5b60006105e1848285016104ff565b91505092915050565b6105f3816102d0565b82525050565b600060208201905061060e60008301846105ea565b92915050565b600082825260208201905092915050565b7f4d6178696d756d206c696d697420726561636865642e00000000000000000000600082015250565b600061065b601683610614565b915061066682610625565b602082019050919050565b6000602082019050818103600083015261068a8161064e565b9050919050565b7f4e487b7100000000000000000000000000000000000000000000000000000000600052601160045260246000fd5b60006106cb826102d0565b91506106d6836102d0565b92508282019050808211156106ee576106ed610691565b5b92915050565b7f4e487b7100000000000000000000000000000000000000000000000000000000600052601260045260246000fd5b600061072e826102d0565b9150610739836102d0565b925082610749576107486106f4565b5b828204905092915050565b600081519050919050565b7f4e487b7100000000000000000000000000000000000000000000000000000000600052602260045260246000fd5b600060028204905060018216806107a657607f821691505b6020821081036107b9576107b861075f565b5b50919050565b60008190508160005260206000209050919050565b60006020601f8301049050919050565b600082821b905092915050565b6000600883026108217fffffffffffffffffffffffffffffffffffffffffffffffffffffffffffffffff826107e4565b61082b86836107e4565b95508019841693508086168417925050509392505050565b6000819050919050565b600061086861086361085e846102d0565b610843565b6102d0565b9050919050565b6000819050919050565b6108828361084d565b61089661088e8261086f565b8484546107f1565b825550505050565b600090565b6108ab61089e565b6108b6818484610879565b505050565b5b818110156108da576108cf6000826108a3565b6001810190506108bc565b5050565b601f82111561091f576108f0816107bf565b6108f9846107d4565b81016020851015610908578190505b61091c610914856107d4565b8301826108bb565b50505b505050565b600082821c905092915050565b600061094260001984600802610924565b1980831691505092915050565b600061095b8383610931565b9150826002028217905092915050565b61097482610754565b67ffffffffffffffff81111561098d5761098c6103bd565b5b610997825461078e565b6109a28282856108de565b600060209050601f8311600181146109d557600084156109c3578287015190505b6109cd858261094f565b865550610a35565b601f1984166109e3866107bf565b60005b82811015610a0b578489015182556001820191506020850194506020810190506109e6565b86831015610a285784890151610a24601f891682610931565b8355505b6001600288020188555050505b505050505050565b7f4e487b7100000000000000000000000000000000000000000000000000000000600052603260045260246000fdfea2646970667358221220e9fe7414601a84cef7015365c194509be6618563382c86451df346c996908cea64736f6c63430008110033",
					"opcodes": "PUSH1 0x80 PUSH1 0x40 MSTORE CALLVALUE DUP1 ISZERO PUSH2 0x10 JUMPI PUSH1 0x0 DUP1 REVERT JUMPDEST POP PUSH2 0xAA2 DUP1 PUSH2 0x20 PUSH1 0x0 CODECOPY PUSH1 0x0 RETURN INVALID PUSH1 0x80 PUSH1 0x40 MSTORE CALLVALUE DUP1 ISZERO PUSH2 0x10 JUMPI PUSH1 0x0 DUP1 REVERT JUMPDEST POP PUSH1 0x4 CALLDATASIZE LT PUSH2 0x41 JUMPI PUSH1 0x0 CALLDATALOAD PUSH1 0xE0 SHR DUP1 PUSH4 0x4ED00023 EQ PUSH2 0x46 JUMPI DUP1 PUSH4 0x7BEB8D6C EQ PUSH2 0x64 JUMPI DUP1 PUSH4 0x9E2986E5 EQ PUSH2 0x80 JUMPI JUMPDEST PUSH1 0x0 DUP1 REVERT JUMPDEST PUSH2 0x4E PUSH2 0xB0 JUMP JUMPDEST PUSH1 0x40 MLOAD PUSH2 0x5B SWAP2 SWAP1 PUSH2 0x36C JUMP JUMPDEST PUSH1 0x40 MLOAD DUP1 SWAP2 SUB SWAP1 RETURN JUMPDEST PUSH2 0x7E PUSH1 0x4 DUP1 CALLDATASIZE SUB DUP2 ADD SWAP1 PUSH2 0x79 SWAP2 SWAP1 PUSH2 0x514 JUMP JUMPDEST PUSH2 0x108 JUMP JUMPDEST STOP JUMPDEST PUSH2 0x9A PUSH1 0x4 DUP1 CALLDATASIZE SUB DUP2 ADD SWAP1 PUSH2 0x95 SWAP2 SWAP1 PUSH2 0x5BD JUMP JUMPDEST PUSH2 0x276 JUMP JUMPDEST PUSH1 0x40 MLOAD PUSH2 0xA7 SWAP2 SWAP1 PUSH2 0x5F9 JUMP JUMPDEST PUSH1 0x40 MLOAD DUP1 SWAP2 SUB SWAP1 RETURN JUMPDEST PUSH1 0x60 PUSH1 0x1 DUP1 SLOAD DUP1 PUSH1 0x20 MUL PUSH1 0x20 ADD PUSH1 0x40 MLOAD SWAP1 DUP2 ADD PUSH1 0x40 MSTORE DUP1 SWAP3 SWAP2 SWAP1 DUP2 DUP2 MSTORE PUSH1 0x20 ADD DUP3 DUP1 SLOAD DUP1 ISZERO PUSH2 0xFE JUMPI PUSH1 0x20 MUL DUP3 ADD SWAP2 SWAP1 PUSH1 0x0 MSTORE PUSH1 0x20 PUSH1 0x0 KECCAK256 SWAP1 JUMPDEST DUP2 SLOAD DUP2 MSTORE PUSH1 0x20 ADD SWAP1 PUSH1 0x1 ADD SWAP1 DUP1 DUP4 GT PUSH2 0xEA JUMPI JUMPDEST POP POP POP POP POP SWAP1 POP SWAP1 JUMP JUMPDEST PUSH1 0x6 PUSH1 0x0 DUP1 SLOAD SWAP1 POP LT PUSH2 0x150 JUMPI PUSH1 0x40 MLOAD PUSH32 0x8C379A000000000000000000000000000000000000000000000000000000000 DUP2 MSTORE PUSH1 0x4 ADD PUSH2 0x147 SWAP1 PUSH2 0x671 JUMP JUMPDEST PUSH1 0x40 MLOAD DUP1 SWAP2 SUB SWAP1 REVERT JUMPDEST PUSH1 0x0 PUSH1 0x40 MLOAD DUP1 PUSH1 0xE0 ADD PUSH1 0x40 MSTORE DUP1 DUP9 DUP2 MSTORE PUSH1 0x20 ADD DUP8 DUP2 MSTORE PUSH1 0x20 ADD DUP7 DUP2 MSTORE PUSH1 0x20 ADD DUP6 DUP2 MSTORE PUSH1 0x20 ADD DUP5 DUP2 MSTORE PUSH1 0x20 ADD DUP4 DUP2 MSTORE PUSH1 0x20 ADD PUSH1 0x0 DUP2 MSTORE POP SWAP1 POP PUSH1 0x3 DUP2 PUSH1 0x60 ADD MLOAD DUP3 PUSH1 0x40 ADD MLOAD DUP4 PUSH1 0x20 ADD MLOAD PUSH2 0x1A3 SWAP2 SWAP1 PUSH2 0x6C0 JUMP JUMPDEST PUSH2 0x1AD SWAP2 SWAP1 PUSH2 0x6C0 JUMP JUMPDEST PUSH2 0x1B7 SWAP2 SWAP1 PUSH2 0x723 JUMP JUMPDEST DUP2 PUSH1 0xC0 ADD DUP2 DUP2 MSTORE POP POP PUSH1 0x1 DUP2 PUSH1 0xC0 ADD MLOAD SWAP1 DUP1 PUSH1 0x1 DUP2 SLOAD ADD DUP1 DUP3 SSTORE DUP1 SWAP2 POP POP PUSH1 0x1 SWAP1 SUB SWAP1 PUSH1 0x0 MSTORE PUSH1 0x20 PUSH1 0x0 KECCAK256 ADD PUSH1 0x0 SWAP1 SWAP2 SWAP1 SWAP2 SWAP1 SWAP2 POP SSTORE PUSH1 0x0 DUP2 SWAP1 DUP1 PUSH1 0x1 DUP2 SLOAD ADD DUP1 DUP3 SSTORE DUP1 SWAP2 POP POP PUSH1 0x1 SWAP1 SUB SWAP1 PUSH1 0x0 MSTORE PUSH1 0x20 PUSH1 0x0 KECCAK256 SWAP1 PUSH1 0x7 MUL ADD PUSH1 0x0 SWAP1 SWAP2 SWAP1 SWAP2 SWAP1 SWAP2 POP PUSH1 0x0 DUP3 ADD MLOAD DUP2 PUSH1 0x0 ADD SWAP1 DUP2 PUSH2 0x22E SWAP2 SWAP1 PUSH2 0x96B JUMP JUMPDEST POP PUSH1 0x20 DUP3 ADD MLOAD DUP2 PUSH1 0x1 ADD SSTORE PUSH1 0x40 DUP3 ADD MLOAD DUP2 PUSH1 0x2 ADD SSTORE PUSH1 0x60 DUP3 ADD MLOAD DUP2 PUSH1 0x3 ADD SSTORE PUSH1 0x80 DUP3 ADD MLOAD DUP2 PUSH1 0x4 ADD SSTORE PUSH1 0xA0 DUP3 ADD MLOAD DUP2 PUSH1 0x5 ADD SSTORE PUSH1 0xC0 DUP3 ADD MLOAD DUP2 PUSH1 0x6 ADD SSTORE POP POP POP POP POP POP POP POP POP JUMP JUMPDEST PUSH1 0x0 DUP1 DUP3 DUP2 SLOAD DUP2 LT PUSH2 0x28B JUMPI PUSH2 0x28A PUSH2 0xA3D JUMP JUMPDEST JUMPDEST SWAP1 PUSH1 0x0 MSTORE PUSH1 0x20 PUSH1 0x0 KECCAK256 SWAP1 PUSH1 0x7 MUL ADD PUSH1 0x6 ADD SLOAD SWAP1 POP SWAP2 SWAP1 POP JUMP JUMPDEST PUSH1 0x0 DUP2 MLOAD SWAP1 POP SWAP2 SWAP1 POP JUMP JUMPDEST PUSH1 0x0 DUP3 DUP3 MSTORE PUSH1 0x20 DUP3 ADD SWAP1 POP SWAP3 SWAP2 POP POP JUMP JUMPDEST PUSH1 0x0 DUP2 SWAP1 POP PUSH1 0x20 DUP3 ADD SWAP1 POP SWAP2 SWAP1 POP JUMP JUMPDEST PUSH1 0x0 DUP2 SWAP1 POP SWAP2 SWAP1 POP JUMP JUMPDEST PUSH2 0x2E3 DUP2 PUSH2 0x2D0 JUMP JUMPDEST DUP3 MSTORE POP POP JUMP JUMPDEST PUSH1 0x0 PUSH2 0x2F5 DUP4 DUP4 PUSH2 0x2DA JUMP JUMPDEST PUSH1 0x20 DUP4 ADD SWAP1 POP SWAP3 SWAP2 POP POP JUMP JUMPDEST PUSH1 0x0 PUSH1 0x20 DUP3 ADD SWAP1 POP SWAP2 SWAP1 POP JUMP JUMPDEST PUSH1 0x0 PUSH2 0x319 DUP3 PUSH2 0x2A4 JUMP JUMPDEST PUSH2 0x323 DUP2 DUP6 PUSH2 0x2AF JUMP JUMPDEST SWAP4 POP PUSH2 0x32E DUP4 PUSH2 0x2C0 JUMP JUMPDEST DUP1 PUSH1 0x0 JUMPDEST DUP4 DUP2 LT ISZERO PUSH2 0x35F JUMPI DUP2 MLOAD PUSH2 0x346 DUP9 DUP3 PUSH2 0x2E9 JUMP JUMPDEST SWAP8 POP PUSH2 0x351 DUP4 PUSH2 0x301 JUMP JUMPDEST SWAP3 POP POP PUSH1 0x1 DUP2 ADD SWAP1 POP PUSH2 0x332 JUMP JUMPDEST POP DUP6 SWAP4 POP POP POP POP SWAP3 SWAP2 POP POP JUMP JUMPDEST PUSH1 0x0 PUSH1 0x20 DUP3 ADD SWAP1 POP DUP2 DUP2 SUB PUSH1 0x0 DUP4 ADD MSTORE PUSH2 0x386 DUP2 DUP5 PUSH2 0x30E JUMP JUMPDEST SWAP1 POP SWAP3 SWAP2 POP POP JUMP JUMPDEST PUSH1 0x0 PUSH1 0x40 MLOAD SWAP1 POP SWAP1 JUMP JUMPDEST PUSH1 0x0 DUP1 REVERT JUMPDEST PUSH1 0x0 DUP1 REVERT JUMPDEST PUSH1 0x0 DUP1 REVERT JUMPDEST PUSH1 0x0 DUP1 REVERT JUMPDEST PUSH1 0x0 PUSH1 0x1F NOT PUSH1 0x1F DUP4 ADD AND SWAP1 POP SWAP2 SWAP1 POP JUMP JUMPDEST PUSH32 0x4E487B7100000000000000000000000000000000000000000000000000000000 PUSH1 0x0 MSTORE PUSH1 0x41 PUSH1 0x4 MSTORE PUSH1 0x24 PUSH1 0x0 REVERT JUMPDEST PUSH2 0x3F5 DUP3 PUSH2 0x3AC JUMP JUMPDEST DUP2 ADD DUP2 DUP2 LT PUSH8 0xFFFFFFFFFFFFFFFF DUP3 GT OR ISZERO PUSH2 0x414 JUMPI PUSH2 0x413 PUSH2 0x3BD JUMP JUMPDEST JUMPDEST DUP1 PUSH1 0x40 MSTORE POP POP POP JUMP JUMPDEST PUSH1 0x0 PUSH2 0x427 PUSH2 0x38E JUMP JUMPDEST SWAP1 POP PUSH2 0x433 DUP3 DUP3 PUSH2 0x3EC JUMP JUMPDEST SWAP2 SWAP1 POP JUMP JUMPDEST PUSH1 0x0 PUSH8 0xFFFFFFFFFFFFFFFF DUP3 GT ISZERO PUSH2 0x453 JUMPI PUSH2 0x452 PUSH2 0x3BD JUMP JUMPDEST JUMPDEST PUSH2 0x45C DUP3 PUSH2 0x3AC JUMP JUMPDEST SWAP1 POP PUSH1 0x20 DUP2 ADD SWAP1 POP SWAP2 SWAP1 POP JUMP JUMPDEST DUP3 DUP2 DUP4 CALLDATACOPY PUSH1 0x0 DUP4 DUP4 ADD MSTORE POP POP POP JUMP JUMPDEST PUSH1 0x0 PUSH2 0x48B PUSH2 0x486 DUP5 PUSH2 0x438 JUMP JUMPDEST PUSH2 0x41D JUMP JUMPDEST SWAP1 POP DUP3 DUP2 MSTORE PUSH1 0x20 DUP2 ADD DUP5 DUP5 DUP5 ADD GT ISZERO PUSH2 0x4A7 JUMPI PUSH2 0x4A6 PUSH2 0x3A7 JUMP JUMPDEST JUMPDEST PUSH2 0x4B2 DUP5 DUP3 DUP6 PUSH2 0x469 JUMP JUMPDEST POP SWAP4 SWAP3 POP POP POP JUMP JUMPDEST PUSH1 0x0 DUP3 PUSH1 0x1F DUP4 ADD SLT PUSH2 0x4CF JUMPI PUSH2 0x4CE PUSH2 0x3A2 JUMP JUMPDEST JUMPDEST DUP2 CALLDATALOAD PUSH2 0x4DF DUP5 DUP3 PUSH1 0x20 DUP7 ADD PUSH2 0x478 JUMP JUMPDEST SWAP2 POP POP SWAP3 SWAP2 POP POP JUMP JUMPDEST PUSH2 0x4F1 DUP2 PUSH2 0x2D0 JUMP JUMPDEST DUP2 EQ PUSH2 0x4FC JUMPI PUSH1 0x0 DUP1 REVERT JUMPDEST POP JUMP JUMPDEST PUSH1 0x0 DUP2 CALLDATALOAD SWAP1 POP PUSH2 0x50E DUP2 PUSH2 0x4E8 JUMP JUMPDEST SWAP3 SWAP2 POP POP JUMP JUMPDEST PUSH1 0x0 DUP1 PUSH1 0x0 DUP1 PUSH1 0x0 DUP1 PUSH1 0xC0 DUP8 DUP10 SUB SLT ISZERO PUSH2 0x531 JUMPI PUSH2 0x530 PUSH2 0x398 JUMP JUMPDEST JUMPDEST PUSH1 0x0 DUP8 ADD CALLDATALOAD PUSH8 0xFFFFFFFFFFFFFFFF DUP2 GT ISZERO PUSH2 0x54F JUMPI PUSH2 0x54E PUSH2 0x39D JUMP JUMPDEST JUMPDEST PUSH2 0x55B DUP10 DUP3 DUP11 ADD PUSH2 0x4BA JUMP JUMPDEST SWAP7 POP POP PUSH1 0x20 PUSH2 0x56C DUP10 DUP3 DUP11 ADD PUSH2 0x4FF JUMP JUMPDEST SWAP6 POP POP PUSH1 0x40 PUSH2 0x57D DUP10 DUP3 DUP11 ADD PUSH2 0x4FF JUMP JUMPDEST SWAP5 POP POP PUSH1 0x60 PUSH2 0x58E DUP10 DUP3 DUP11 ADD PUSH2 0x4FF JUMP JUMPDEST SWAP4 POP POP PUSH1 0x80 PUSH2 0x59F DUP10 DUP3 DUP11 ADD PUSH2 0x4FF JUMP JUMPDEST SWAP3 POP POP PUSH1 0xA0 PUSH2 0x5B0 DUP10 DUP3 DUP11 ADD PUSH2 0x4FF JUMP JUMPDEST SWAP2 POP POP SWAP3 SWAP6 POP SWAP3 SWAP6 POP SWAP3 SWAP6 JUMP JUMPDEST PUSH1 0x0 PUSH1 0x20 DUP3 DUP5 SUB SLT ISZERO PUSH2 0x5D3 JUMPI PUSH2 0x5D2 PUSH2 0x398 JUMP JUMPDEST JUMPDEST PUSH1 0x0 PUSH2 0x5E1 DUP5 DUP3 DUP6 ADD PUSH2 0x4FF JUMP JUMPDEST SWAP2 POP POP SWAP3 SWAP2 POP POP JUMP JUMPDEST PUSH2 0x5F3 DUP2 PUSH2 0x2D0 JUMP JUMPDEST DUP3 MSTORE POP POP JUMP JUMPDEST PUSH1 0x0 PUSH1 0x20 DUP3 ADD SWAP1 POP PUSH2 0x60E PUSH1 0x0 DUP4 ADD DUP5 PUSH2 0x5EA JUMP JUMPDEST SWAP3 SWAP2 POP POP JUMP JUMPDEST PUSH1 0x0 DUP3 DUP3 MSTORE PUSH1 0x20 DUP3 ADD SWAP1 POP SWAP3 SWAP2 POP POP JUMP JUMPDEST PUSH32 0x4D6178696D756D206C696D697420726561636865642E00000000000000000000 PUSH1 0x0 DUP3 ADD MSTORE POP JUMP JUMPDEST PUSH1 0x0 PUSH2 0x65B PUSH1 0x16 DUP4 PUSH2 0x614 JUMP JUMPDEST SWAP2 POP PUSH2 0x666 DUP3 PUSH2 0x625 JUMP JUMPDEST PUSH1 0x20 DUP3 ADD SWAP1 POP SWAP2 SWAP1 POP JUMP JUMPDEST PUSH1 0x0 PUSH1 0x20 DUP3 ADD SWAP1 POP DUP2 DUP2 SUB PUSH1 0x0 DUP4 ADD MSTORE PUSH2 0x68A DUP2 PUSH2 0x64E JUMP JUMPDEST SWAP1 POP SWAP2 SWAP1 POP JUMP JUMPDEST PUSH32 0x4E487B7100000000000000000000000000000000000000000000000000000000 PUSH1 0x0 MSTORE PUSH1 0x11 PUSH1 0x4 MSTORE PUSH1 0x24 PUSH1 0x0 REVERT JUMPDEST PUSH1 0x0 PUSH2 0x6CB DUP3 PUSH2 0x2D0 JUMP JUMPDEST SWAP2 POP PUSH2 0x6D6 DUP4 PUSH2 0x2D0 JUMP JUMPDEST SWAP3 POP DUP3 DUP3 ADD SWAP1 POP DUP1 DUP3 GT ISZERO PUSH2 0x6EE JUMPI PUSH2 0x6ED PUSH2 0x691 JUMP JUMPDEST JUMPDEST SWAP3 SWAP2 POP POP JUMP JUMPDEST PUSH32 0x4E487B7100000000000000000000000000000000000000000000000000000000 PUSH1 0x0 MSTORE PUSH1 0x12 PUSH1 0x4 MSTORE PUSH1 0x24 PUSH1 0x0 REVERT JUMPDEST PUSH1 0x0 PUSH2 0x72E DUP3 PUSH2 0x2D0 JUMP JUMPDEST SWAP2 POP PUSH2 0x739 DUP4 PUSH2 0x2D0 JUMP JUMPDEST SWAP3 POP DUP3 PUSH2 0x749 JUMPI PUSH2 0x748 PUSH2 0x6F4 JUMP JUMPDEST JUMPDEST DUP3 DUP3 DIV SWAP1 POP SWAP3 SWAP2 POP POP JUMP JUMPDEST PUSH1 0x0 DUP2 MLOAD SWAP1 POP SWAP2 SWAP1 POP JUMP JUMPDEST PUSH32 0x4E487B7100000000000000000000000000000000000000000000000000000000 PUSH1 0x0 MSTORE PUSH1 0x22 PUSH1 0x4 MSTORE PUSH1 0x24 PUSH1 0x0 REVERT JUMPDEST PUSH1 0x0 PUSH1 0x2 DUP3 DIV SWAP1 POP PUSH1 0x1 DUP3 AND DUP1 PUSH2 0x7A6 JUMPI PUSH1 0x7F DUP3 AND SWAP2 POP JUMPDEST PUSH1 0x20 DUP3 LT DUP2 SUB PUSH2 0x7B9 JUMPI PUSH2 0x7B8 PUSH2 0x75F JUMP JUMPDEST JUMPDEST POP SWAP2 SWAP1 POP JUMP JUMPDEST PUSH1 0x0 DUP2 SWAP1 POP DUP2 PUSH1 0x0 MSTORE PUSH1 0x20 PUSH1 0x0 KECCAK256 SWAP1 POP SWAP2 SWAP1 POP JUMP JUMPDEST PUSH1 0x0 PUSH1 0x20 PUSH1 0x1F DUP4 ADD DIV SWAP1 POP SWAP2 SWAP1 POP JUMP JUMPDEST PUSH1 0x0 DUP3 DUP3 SHL SWAP1 POP SWAP3 SWAP2 POP POP JUMP JUMPDEST PUSH1 0x0 PUSH1 0x8 DUP4 MUL PUSH2 0x821 PUSH32 0xFFFFFFFFFFFFFFFFFFFFFFFFFFFFFFFFFFFFFFFFFFFFFFFFFFFFFFFFFFFFFFFF DUP3 PUSH2 0x7E4 JUMP JUMPDEST PUSH2 0x82B DUP7 DUP4 PUSH2 0x7E4 JUMP JUMPDEST SWAP6 POP DUP1 NOT DUP5 AND SWAP4 POP DUP1 DUP7 AND DUP5 OR SWAP3 POP POP POP SWAP4 SWAP3 POP POP POP JUMP JUMPDEST PUSH1 0x0 DUP2 SWAP1 POP SWAP2 SWAP1 POP JUMP JUMPDEST PUSH1 0x0 PUSH2 0x868 PUSH2 0x863 PUSH2 0x85E DUP5 PUSH2 0x2D0 JUMP JUMPDEST PUSH2 0x843 JUMP JUMPDEST PUSH2 0x2D0 JUMP JUMPDEST SWAP1 POP SWAP2 SWAP1 POP JUMP JUMPDEST PUSH1 0x0 DUP2 SWAP1 POP SWAP2 SWAP1 POP JUMP JUMPDEST PUSH2 0x882 DUP4 PUSH2 0x84D JUMP JUMPDEST PUSH2 0x896 PUSH2 0x88E DUP3 PUSH2 0x86F JUMP JUMPDEST DUP5 DUP5 SLOAD PUSH2 0x7F1 JUMP JUMPDEST DUP3 SSTORE POP POP POP POP JUMP JUMPDEST PUSH1 0x0 SWAP1 JUMP JUMPDEST PUSH2 0x8AB PUSH2 0x89E JUMP JUMPDEST PUSH2 0x8B6 DUP2 DUP5 DUP5 PUSH2 0x879 JUMP JUMPDEST POP POP POP JUMP JUMPDEST JUMPDEST DUP2 DUP2 LT ISZERO PUSH2 0x8DA JUMPI PUSH2 0x8CF PUSH1 0x0 DUP3 PUSH2 0x8A3 JUMP JUMPDEST PUSH1 0x1 DUP2 ADD SWAP1 POP PUSH2 0x8BC JUMP JUMPDEST POP POP JUMP JUMPDEST PUSH1 0x1F DUP3 GT ISZERO PUSH2 0x91F JUMPI PUSH2 0x8F0 DUP2 PUSH2 0x7BF JUMP JUMPDEST PUSH2 0x8F9 DUP5 PUSH2 0x7D4 JUMP JUMPDEST DUP2 ADD PUSH1 0x20 DUP6 LT ISZERO PUSH2 0x908 JUMPI DUP2 SWAP1 POP JUMPDEST PUSH2 0x91C PUSH2 0x914 DUP6 PUSH2 0x7D4 JUMP JUMPDEST DUP4 ADD DUP3 PUSH2 0x8BB JUMP JUMPDEST POP POP JUMPDEST POP POP POP JUMP JUMPDEST PUSH1 0x0 DUP3 DUP3 SHR SWAP1 POP SWAP3 SWAP2 POP POP JUMP JUMPDEST PUSH1 0x0 PUSH2 0x942 PUSH1 0x0 NOT DUP5 PUSH1 0x8 MUL PUSH2 0x924 JUMP JUMPDEST NOT DUP1 DUP4 AND SWAP2 POP POP SWAP3 SWAP2 POP POP JUMP JUMPDEST PUSH1 0x0 PUSH2 0x95B DUP4 DUP4 PUSH2 0x931 JUMP JUMPDEST SWAP2 POP DUP3 PUSH1 0x2 MUL DUP3 OR SWAP1 POP SWAP3 SWAP2 POP POP JUMP JUMPDEST PUSH2 0x974 DUP3 PUSH2 0x754 JUMP JUMPDEST PUSH8 0xFFFFFFFFFFFFFFFF DUP2 GT ISZERO PUSH2 0x98D JUMPI PUSH2 0x98C PUSH2 0x3BD JUMP JUMPDEST JUMPDEST PUSH2 0x997 DUP3 SLOAD PUSH2 0x78E JUMP JUMPDEST PUSH2 0x9A2 DUP3 DUP3 DUP6 PUSH2 0x8DE JUMP JUMPDEST PUSH1 0x0 PUSH1 0x20 SWAP1 POP PUSH1 0x1F DUP4 GT PUSH1 0x1 DUP2 EQ PUSH2 0x9D5 JUMPI PUSH1 0x0 DUP5 ISZERO PUSH2 0x9C3 JUMPI DUP3 DUP8 ADD MLOAD SWAP1 POP JUMPDEST PUSH2 0x9CD DUP6 DUP3 PUSH2 0x94F JUMP JUMPDEST DUP7 SSTORE POP PUSH2 0xA35 JUMP JUMPDEST PUSH1 0x1F NOT DUP5 AND PUSH2 0x9E3 DUP7 PUSH2 0x7BF JUMP JUMPDEST PUSH1 0x0 JUMPDEST DUP3 DUP2 LT ISZERO PUSH2 0xA0B JUMPI DUP5 DUP10 ADD MLOAD DUP3 SSTORE PUSH1 0x1 DUP3 ADD SWAP2 POP PUSH1 0x20 DUP6 ADD SWAP5 POP PUSH1 0x20 DUP2 ADD SWAP1 POP PUSH2 0x9E6 JUMP JUMPDEST DUP7 DUP4 LT ISZERO PUSH2 0xA28 JUMPI DUP5 DUP10 ADD MLOAD PUSH2 0xA24 PUSH1 0x1F DUP10 AND DUP3 PUSH2 0x931 JUMP JUMPDEST DUP4 SSTORE POP JUMPDEST PUSH1 0x1 PUSH1 0x2 DUP9 MUL ADD DUP9 SSTORE POP POP POP JUMPDEST POP POP POP POP POP POP JUMP JUMPDEST PUSH32 0x4E487B7100000000000000000000000000000000000000000000000000000000 PUSH1 0x0 MSTORE PUSH1 0x32 PUSH1 0x4 MSTORE PUSH1 0x24 PUSH1 0x0 REVERT INVALID LOG2 PUSH5 0x6970667358 0x22 SLT KECCAK256 0xE9 INVALID PUSH21 0x14601A84CEF7015365C194509BE6618563382C8645 SAR RETURN CHAINID 0xC9 SWAP7 SWAP1 DUP13 0xEA PUSH5 0x736F6C6343 STOP ADDMOD GT STOP CALLER "
				},
				"gasEstimates": {
					"creation": {
						"codeDepositCost": "544400",
						"executionCost": "581",
						"totalCost": "544981"
					},
					"external": {
						"AverageMarksAll()": "infinite",
						"AvgmarkStudent(uint256)": "infinite",
						"setStudent(string,uint256,uint256,uint256,uint256,uint256)": "infinite"
					}
				},
				"methodIdentifiers": {
					"AverageMarksAll()": "4ed00023",
					"AvgmarkStudent(uint256)": "9e2986e5",
					"setStudent(string,uint256,uint256,uint256,uint256,uint256)": "7beb8d6c"
				}
			},
			"storageLayout": {
				"storage": [
					{
						"astId": 20,
						"contract": "contracts/smart_contract.sol:StdArray",
						"label": "student",
						"offset": 0,
						"slot": "0",
						"type": "t_array(t_struct(students)16_storage)dyn_storage"
					},
					{
						"astId": 23,
						"contract": "contracts/smart_contract.sol:StdArray",
						"label": "Average",
						"offset": 0,
						"slot": "1",
						"type": "t_array(t_uint256)dyn_storage"
					}
				],
				"types": {
					"t_array(t_struct(students)16_storage)dyn_storage": {
						"base": "t_struct(students)16_storage",
						"encoding": "dynamic_array",
						"label": "struct StdArray.students[]",
						"numberOfBytes": "32"
					},
					"t_array(t_uint256)dyn_storage": {
						"base": "t_uint256",
						"encoding": "dynamic_array",
						"label": "uint256[]",
						"numberOfBytes": "32"
					},
					"t_string_storage": {
						"encoding": "bytes",
						"label": "string",
						"numberOfBytes": "32"
					},
					"t_struct(students)16_storage": {
						"encoding": "inplace",
						"label": "struct StdArray.students",
						"members": [
							{
								"astId": 3,
								"contract": "contracts/smart_contract.sol:StdArray",
								"label": "name",
								"offset": 0,
								"slot": "0",
								"type": "t_string_storage"
							},
							{
								"astId": 5,
								"contract": "contracts/smart_contract.sol:StdArray",
								"label": "m1",
								"offset": 0,
								"slot": "1",
								"type": "t_uint256"
							},
							{
								"astId": 7,
								"contract": "contracts/smart_contract.sol:StdArray",
								"label": "m2",
								"offset": 0,
								"slot": "2",
								"type": "t_uint256"
							},
							{
								"astId": 9,
								"contract": "contracts/smart_contract.sol:StdArray",
								"label": "m3",
								"offset": 0,
								"slot": "3",
								"type": "t_uint256"
							},
							{
								"astId": 11,
								"contract": "contracts/smart_contract.sol:StdArray",
								"label": "sem",
								"offset": 0,
								"slot": "4",
								"type": "t_uint256"
							},
							{
								"astId": 13,
								"contract": "contracts/smart_contract.sol:StdArray",
								"label": "roll",
								"offset": 0,
								"slot": "5",
								"type": "t_uint256"
							},
							{
								"astId": 15,
								"contract": "contracts/smart_contract.sol:StdArray",
								"label": "avg",
								"offset": 0,
								"slot": "6",
								"type": "t_uint256"
							}
						],
						"numberOfBytes": "224"
					},
					"t_uint256": {
						"encoding": "inplace",
						"label": "uint256",
						"numberOfBytes": "32"
					}
				}
			},
			"userdoc": {
				"kind": "user",
				"methods": {},
				"version": 1
			}
		}
	}
}