{
	"contracts/if.sol": {
		"DecisionMaking": {
			"abi": [
				{
					"inputs": [],
					"name": "check",
					"outputs": [
						{
							"internalType": "bool",
							"name": "",
							"type": "bool"
						}
					],
					"stateMutability": "view",
					"type": "function"
				}
			],
			"devdoc": {
				"kind": "dev",
				"methods": {},
				"version": 1
			},
			"evm": {
				"assembly": "    /* \"contracts/if.sol\":35:248  contract DecisionMaking{... */\n  mstore(0x40, 0x80)\n    /* \"contracts/if.sol\":72:73  7 */\n  0x07\n    /* \"contracts/if.sol\":65:73  uint i=7 */\n  0x00\n  sstore\n    /* \"contracts/if.sol\":35:248  contract DecisionMaking{... */\n  callvalue\n  dup1\n  iszero\n  tag_1\n  jumpi\n  0x00\n  dup1\n  revert\ntag_1:\n  pop\n  dataSize(sub_0)\n  dup1\n  dataOffset(sub_0)\n  0x00\n  codecopy\n  0x00\n  return\nstop\n\nsub_0: assembly {\n        /* \"contracts/if.sol\":35:248  contract DecisionMaking{... */\n      mstore(0x40, 0x80)\n      callvalue\n      dup1\n      iszero\n      tag_1\n      jumpi\n      0x00\n      dup1\n      revert\n    tag_1:\n      pop\n      jumpi(tag_2, lt(calldatasize, 0x04))\n      shr(0xe0, calldataload(0x00))\n      dup1\n      0x919840ad\n      eq\n      tag_3\n      jumpi\n    tag_2:\n      0x00\n      dup1\n      revert\n        /* \"contracts/if.sol\":82:245  function check() public view returns(bool)... */\n    tag_3:\n      tag_4\n      tag_5\n      jump\t// in\n    tag_4:\n      mload(0x40)\n      tag_6\n      swap2\n      swap1\n      tag_7\n      jump\t// in\n    tag_6:\n      mload(0x40)\n      dup1\n      swap2\n      sub\n      swap1\n      return\n    tag_5:\n        /* \"contracts/if.sol\":119:123  bool */\n      0x00\n        /* \"contracts/if.sol\":146:148  10 */\n      0x0a\n        /* \"contracts/if.sol\":144:145  i */\n      sload(0x00)\n        /* \"contracts/if.sol\":144:148  i<10 */\n      lt\n        /* \"contracts/if.sol\":141:237  if(i<10)... */\n      iszero\n      tag_9\n      jumpi\n        /* \"contracts/if.sol\":181:185  true */\n      0x01\n        /* \"contracts/if.sol\":174:185  return true */\n      swap1\n      pop\n      jump(tag_8)\n        /* \"contracts/if.sol\":141:237  if(i<10)... */\n    tag_9:\n        /* \"contracts/if.sol\":232:237  false */\n      0x00\n        /* \"contracts/if.sol\":225:237  return false */\n      swap1\n      pop\n        /* \"contracts/if.sol\":82:245  function check() public view returns(bool)... */\n    tag_8:\n      swap1\n      jump\t// out\n        /* \"#utility.yul\":7:97   */\n    tag_11:\n        /* \"#utility.yul\":41:48   */\n      0x00\n        /* \"#utility.yul\":84:89   */\n      dup2\n        /* \"#utility.yul\":77:90   */\n      iszero\n        /* \"#utility.yul\":70:91   */\n      iszero\n        /* \"#utility.yul\":59:91   */\n      swap1\n      pop\n        /* \"#utility.yul\":7:97   */\n      swap2\n      swap1\n      pop\n      jump\t// out\n        /* \"#utility.yul\":103:212   */\n    tag_12:\n        /* \"#utility.yul\":184:205   */\n      tag_16\n        /* \"#utility.yul\":199:204   */\n      dup2\n        /* \"#utility.yul\":184:205   */\n      tag_11\n      jump\t// in\n    tag_16:\n        /* \"#utility.yul\":179:182   */\n      dup3\n        /* \"#utility.yul\":172:206   */\n      mstore\n        /* \"#utility.yul\":103:212   */\n      pop\n      pop\n      jump\t// out\n        /* \"#utility.yul\":218:428   */\n    tag_7:\n        /* \"#utility.yul\":305:309   */\n      0x00\n        /* \"#utility.yul\":343:345   */\n      0x20\n        /* \"#utility.yul\":332:341   */\n      dup3\n        /* \"#utility.yul\":328:346   */\n      add\n        /* \"#utility.yul\":320:346   */\n      swap1\n      pop\n        /* \"#utility.yul\":356:421   */\n      tag_18\n        /* \"#utility.yul\":418:419   */\n      0x00\n        /* \"#utility.yul\":407:416   */\n      dup4\n        /* \"#utility.yul\":403:420   */\n      add\n        /* \"#utility.yul\":394:400   */\n      dup5\n        /* \"#utility.yul\":356:421   */\n      tag_12\n      jump\t// in\n    tag_18:\n        /* \"#utility.yul\":218:428   */\n      swap3\n      swap2\n      pop\n      pop\n      jump\t// out\n\n    auxdata: 0xa264697066735822122007eaf4b4499aa4fec3035b85cd43314964343ee4ccfe73e88d39ff28fe0d1b2664736f6c63430008110033\n}\n",
				"bytecode": {
					"linkReferences": {},
					"object": "6080604052600760005534801561001557600080fd5b5060cb806100246000396000f3fe6080604052348015600f57600080fd5b506004361060285760003560e01c8063919840ad14602d575b600080fd5b60336047565b604051603e9190607c565b60405180910390f35b6000600a6000541015605b57600190506060565b600090505b90565b60008115159050919050565b6076816063565b82525050565b6000602082019050608f6000830184606f565b9291505056fea264697066735822122007eaf4b4499aa4fec3035b85cd43314964343ee4ccfe73e88d39ff28fe0d1b2664736f6c63430008110033",
					"opcodes": "PUSH1 0x80 PUSH1 0x40 MSTORE PUSH1 0x7 PUSH1 0x0 SSTORE CALLVALUE DUP1 ISZERO PUSH2 0x15 JUMPI PUSH1 0x0 DUP1 REVERT JUMPDEST POP PUSH1 0xCB DUP1 PUSH2 0x24 PUSH1 0x0 CODECOPY PUSH1 0x0 RETURN INVALID PUSH1 0x80 PUSH1 0x40 MSTORE CALLVALUE DUP1 ISZERO PUSH1 0xF JUMPI PUSH1 0x0 DUP1 REVERT JUMPDEST POP PUSH1 0x4 CALLDATASIZE LT PUSH1 0x28 JUMPI PUSH1 0x0 CALLDATALOAD PUSH1 0xE0 SHR DUP1 PUSH4 0x919840AD EQ PUSH1 0x2D JUMPI JUMPDEST PUSH1 0x0 DUP1 REVERT JUMPDEST PUSH1 0x33 PUSH1 0x47 JUMP JUMPDEST PUSH1 0x40 MLOAD PUSH1 0x3E SWAP2 SWAP1 PUSH1 0x7C JUMP JUMPDEST PUSH1 0x40 MLOAD DUP1 SWAP2 SUB SWAP1 RETURN JUMPDEST PUSH1 0x0 PUSH1 0xA PUSH1 0x0 SLOAD LT ISZERO PUSH1 0x5B JUMPI PUSH1 0x1 SWAP1 POP PUSH1 0x60 JUMP JUMPDEST PUSH1 0x0 SWAP1 POP JUMPDEST SWAP1 JUMP JUMPDEST PUSH1 0x0 DUP2 ISZERO ISZERO SWAP1 POP SWAP2 SWAP1 POP JUMP JUMPDEST PUSH1 0x76 DUP2 PUSH1 0x63 JUMP JUMPDEST DUP3 MSTORE POP POP JUMP JUMPDEST PUSH1 0x0 PUSH1 0x20 DUP3 ADD SWAP1 POP PUSH1 0x8F PUSH1 0x0 DUP4 ADD DUP5 PUSH1 0x6F JUMP JUMPDEST SWAP3 SWAP2 POP POP JUMP INVALID LOG2 PUSH5 0x6970667358 0x22 SLT KECCAK256 SMOD 0xEA DELEGATECALL 0xB4 0x49 SWAP11 LOG4 INVALID 0xC3 SUB JUMPDEST DUP6 0xCD NUMBER BALANCE 0x49 PUSH5 0x343EE4CCFE PUSH20 0xE88D39FF28FE0D1B2664736F6C63430008110033 "
				},
				"gasEstimates": {
					"creation": {
						"codeDepositCost": "40600",
						"executionCost": "22199",
						"totalCost": "62799"
					},
					"external": {
						"check()": "2458"
					}
				},
				"methodIdentifiers": {
					"check()": "919840ad"
				}
			},
			"storageLayout": {
				"storage": [
					{
						"astId": 4,
						"contract": "contracts/if.sol:DecisionMaking",
						"label": "i",
						"offset": 0,
						"slot": "0",
						"type": "t_uint256"
					}
				],
				"types": {
					"t_uint256": {
						"encoding": "inplace",
						"label": "uint256",
						"numberOfBytes": "32"
					}
				}
			},
			"userdoc": {
				"kind": "user",
				"methods": {},
				"version": 1
			}
		}
	}
}