{
	"contracts/calculator.sol": {
		"calculator": {
			"abi": [
				{
					"inputs": [],
					"name": "add",
					"outputs": [
						{
							"internalType": "uint256",
							"name": "",
							"type": "uint256"
						}
					],
					"stateMutability": "view",
					"type": "function"
				},
				{
					"inputs": [],
					"name": "divide",
					"outputs": [
						{
							"internalType": "uint256",
							"name": "",
							"type": "uint256"
						}
					],
					"stateMutability": "view",
					"type": "function"
				},
				{
					"inputs": [],
					"name": "multiply",
					"outputs": [
						{
							"internalType": "uint256",
							"name": "",
							"type": "uint256"
						}
					],
					"stateMutability": "view",
					"type": "function"
				},
				{
					"inputs": [
						{
							"internalType": "uint256",
							"name": "p",
							"type": "uint256"
						},
						{
							"internalType": "uint256",
							"name": "q",
							"type": "uint256"
						}
					],
					"name": "setValues",
					"outputs": [],
					"stateMutability": "nonpayable",
					"type": "function"
				},
				{
					"inputs": [],
					"name": "substract",
					"outputs": [
						{
							"internalType": "uint256",
							"name": "",
							"type": "uint256"
						}
					],
					"stateMutability": "view",
					"type": "function"
				}
			],
			"devdoc": {
				"kind": "dev",
				"methods": {},
				"version": 1
			},
			"evm": {
				"assembly": "    /* \"contracts/calculator.sol\":72:634  contract calculator... */\n  mstore(0x40, 0x80)\n  callvalue\n  dup1\n  iszero\n  tag_1\n  jumpi\n  0x00\n  dup1\n  revert\ntag_1:\n  pop\n  dataSize(sub_0)\n  dup1\n  dataOffset(sub_0)\n  0x00\n  codecopy\n  0x00\n  return\nstop\n\nsub_0: assembly {\n        /* \"contracts/calculator.sol\":72:634  contract calculator... */\n      mstore(0x40, 0x80)\n      callvalue\n      dup1\n      iszero\n      tag_1\n      jumpi\n      0x00\n      dup1\n      revert\n    tag_1:\n      pop\n      jumpi(tag_2, lt(calldatasize, 0x04))\n      shr(0xe0, calldataload(0x00))\n      dup1\n      0x4f2be91f\n      eq\n      tag_3\n      jumpi\n      dup1\n      0x9c3dfaf6\n      eq\n      tag_4\n      jumpi\n      dup1\n      0xb53b8d7a\n      eq\n      tag_5\n      jumpi\n      dup1\n      0xdf09a2da\n      eq\n      tag_6\n      jumpi\n      dup1\n      0xf3593cd0\n      eq\n      tag_7\n      jumpi\n    tag_2:\n      0x00\n      dup1\n      revert\n        /* \"contracts/calculator.sol\":219:295  function add() view public returns(uint)... */\n    tag_3:\n      tag_8\n      tag_9\n      jump\t// in\n    tag_8:\n      mload(0x40)\n      tag_10\n      swap2\n      swap1\n      tag_11\n      jump\t// in\n    tag_10:\n      mload(0x40)\n      dup1\n      swap2\n      sub\n      swap1\n      return\n        /* \"contracts/calculator.sol\":128:211  function setValues(uint p, uint q) public... */\n    tag_4:\n      tag_12\n      0x04\n      dup1\n      calldatasize\n      sub\n      dup2\n      add\n      swap1\n      tag_13\n      swap2\n      swap1\n      tag_14\n      jump\t// in\n    tag_13:\n      tag_15\n      jump\t// in\n    tag_12:\n      stop\n        /* \"contracts/calculator.sol\":482:631  function divide() view public returns(uint)... */\n    tag_5:\n      tag_16\n      tag_17\n      jump\t// in\n    tag_16:\n      mload(0x40)\n      tag_18\n      swap2\n      swap1\n      tag_11\n      jump\t// in\n    tag_18:\n      mload(0x40)\n      dup1\n      swap2\n      sub\n      swap1\n      return\n        /* \"contracts/calculator.sol\":303:385  function substract() view public returns(uint)... */\n    tag_6:\n      tag_19\n      tag_20\n      jump\t// in\n    tag_19:\n      mload(0x40)\n      tag_21\n      swap2\n      swap1\n      tag_11\n      jump\t// in\n    tag_21:\n      mload(0x40)\n      dup1\n      swap2\n      sub\n      swap1\n      return\n        /* \"contracts/calculator.sol\":393:474  function multiply() view public returns(uint)... */\n    tag_7:\n      tag_22\n      tag_23\n      jump\t// in\n    tag_22:\n      mload(0x40)\n      tag_24\n      swap2\n      swap1\n      tag_11\n      jump\t// in\n    tag_24:\n      mload(0x40)\n      dup1\n      swap2\n      sub\n      swap1\n      return\n        /* \"contracts/calculator.sol\":219:295  function add() view public returns(uint)... */\n    tag_9:\n        /* \"contracts/calculator.sol\":254:258  uint */\n      0x00\n        /* \"contracts/calculator.sol\":285:286  y */\n      sload(0x01)\n        /* \"contracts/calculator.sol\":283:284  x */\n      sload(0x00)\n        /* \"contracts/calculator.sol\":283:286  x+y */\n      tag_26\n      swap2\n      swap1\n      tag_27\n      jump\t// in\n    tag_26:\n        /* \"contracts/calculator.sol\":276:287  return(x+y) */\n      swap1\n      pop\n        /* \"contracts/calculator.sol\":219:295  function add() view public returns(uint)... */\n      swap1\n      jump\t// out\n        /* \"contracts/calculator.sol\":128:211  function setValues(uint p, uint q) public... */\n    tag_15:\n        /* \"contracts/calculator.sol\":188:189  p */\n      dup2\n        /* \"contracts/calculator.sol\":186:187  x */\n      0x00\n        /* \"contracts/calculator.sol\":186:189  x=p */\n      dup2\n      swap1\n      sstore\n      pop\n        /* \"contracts/calculator.sol\":202:203  q */\n      dup1\n        /* \"contracts/calculator.sol\":200:201  y */\n      0x01\n        /* \"contracts/calculator.sol\":200:203  y=q */\n      dup2\n      swap1\n      sstore\n      pop\n        /* \"contracts/calculator.sol\":128:211  function setValues(uint p, uint q) public... */\n      pop\n      pop\n      jump\t// out\n        /* \"contracts/calculator.sol\":482:631  function divide() view public returns(uint)... */\n    tag_17:\n        /* \"contracts/calculator.sol\":520:524  uint */\n      0x00\n        /* \"contracts/calculator.sol\":552:553  0 */\n      dup1\n        /* \"contracts/calculator.sol\":550:551  y */\n      sload(0x01)\n        /* \"contracts/calculator.sol\":550:553  y>0 */\n      gt\n        /* \"contracts/calculator.sol\":542:601  require(y>0,\"The second parameter should be larger than 0\") */\n      tag_30\n      jumpi\n      mload(0x40)\n      0x08c379a000000000000000000000000000000000000000000000000000000000\n      dup2\n      mstore\n      0x04\n      add\n      tag_31\n      swap1\n      tag_32\n      jump\t// in\n    tag_31:\n      mload(0x40)\n      dup1\n      swap2\n      sub\n      swap1\n      revert\n    tag_30:\n        /* \"contracts/calculator.sol\":621:622  y */\n      sload(0x01)\n        /* \"contracts/calculator.sol\":619:620  x */\n      sload(0x00)\n        /* \"contracts/calculator.sol\":619:622  x/y */\n      tag_33\n      swap2\n      swap1\n      tag_34\n      jump\t// in\n    tag_33:\n        /* \"contracts/calculator.sol\":612:623  return(x/y) */\n      swap1\n      pop\n        /* \"contracts/calculator.sol\":482:631  function divide() view public returns(uint)... */\n      swap1\n      jump\t// out\n        /* \"contracts/calculator.sol\":303:385  function substract() view public returns(uint)... */\n    tag_20:\n        /* \"contracts/calculator.sol\":344:348  uint */\n      0x00\n        /* \"contracts/calculator.sol\":375:376  y */\n      sload(0x01)\n        /* \"contracts/calculator.sol\":373:374  x */\n      sload(0x00)\n        /* \"contracts/calculator.sol\":373:376  x-y */\n      tag_36\n      swap2\n      swap1\n      tag_37\n      jump\t// in\n    tag_36:\n        /* \"contracts/calculator.sol\":366:377  return(x-y) */\n      swap1\n      pop\n        /* \"contracts/calculator.sol\":303:385  function substract() view public returns(uint)... */\n      swap1\n      jump\t// out\n        /* \"contracts/calculator.sol\":393:474  function multiply() view public returns(uint)... */\n    tag_23:\n        /* \"contracts/calculator.sol\":433:437  uint */\n      0x00\n        /* \"contracts/calculator.sol\":464:465  y */\n      sload(0x01)\n        /* \"contracts/calculator.sol\":462:463  x */\n      sload(0x00)\n        /* \"contracts/calculator.sol\":462:465  x*y */\n      tag_39\n      swap2\n      swap1\n      tag_40\n      jump\t// in\n    tag_39:\n        /* \"contracts/calculator.sol\":455:466  return(x*y) */\n      swap1\n      pop\n        /* \"contracts/calculator.sol\":393:474  function multiply() view public returns(uint)... */\n      swap1\n      jump\t// out\n        /* \"#utility.yul\":7:84   */\n    tag_41:\n        /* \"#utility.yul\":44:51   */\n      0x00\n        /* \"#utility.yul\":73:78   */\n      dup2\n        /* \"#utility.yul\":62:78   */\n      swap1\n      pop\n        /* \"#utility.yul\":7:84   */\n      swap2\n      swap1\n      pop\n      jump\t// out\n        /* \"#utility.yul\":90:208   */\n    tag_42:\n        /* \"#utility.yul\":177:201   */\n      tag_56\n        /* \"#utility.yul\":195:200   */\n      dup2\n        /* \"#utility.yul\":177:201   */\n      tag_41\n      jump\t// in\n    tag_56:\n        /* \"#utility.yul\":172:175   */\n      dup3\n        /* \"#utility.yul\":165:202   */\n      mstore\n        /* \"#utility.yul\":90:208   */\n      pop\n      pop\n      jump\t// out\n        /* \"#utility.yul\":214:436   */\n    tag_11:\n        /* \"#utility.yul\":307:311   */\n      0x00\n        /* \"#utility.yul\":345:347   */\n      0x20\n        /* \"#utility.yul\":334:343   */\n      dup3\n        /* \"#utility.yul\":330:348   */\n      add\n        /* \"#utility.yul\":322:348   */\n      swap1\n      pop\n        /* \"#utility.yul\":358:429   */\n      tag_58\n        /* \"#utility.yul\":426:427   */\n      0x00\n        /* \"#utility.yul\":415:424   */\n      dup4\n        /* \"#utility.yul\":411:428   */\n      add\n        /* \"#utility.yul\":402:408   */\n      dup5\n        /* \"#utility.yul\":358:429   */\n      tag_42\n      jump\t// in\n    tag_58:\n        /* \"#utility.yul\":214:436   */\n      swap3\n      swap2\n      pop\n      pop\n      jump\t// out\n        /* \"#utility.yul\":523:640   */\n    tag_44:\n        /* \"#utility.yul\":632:633   */\n      0x00\n        /* \"#utility.yul\":629:630   */\n      dup1\n        /* \"#utility.yul\":622:634   */\n      revert\n        /* \"#utility.yul\":769:891   */\n    tag_46:\n        /* \"#utility.yul\":842:866   */\n      tag_63\n        /* \"#utility.yul\":860:865   */\n      dup2\n        /* \"#utility.yul\":842:866   */\n      tag_41\n      jump\t// in\n    tag_63:\n        /* \"#utility.yul\":835:840   */\n      dup2\n        /* \"#utility.yul\":832:867   */\n      eq\n        /* \"#utility.yul\":822:885   */\n      tag_64\n      jumpi\n        /* \"#utility.yul\":881:882   */\n      0x00\n        /* \"#utility.yul\":878:879   */\n      dup1\n        /* \"#utility.yul\":871:883   */\n      revert\n        /* \"#utility.yul\":822:885   */\n    tag_64:\n        /* \"#utility.yul\":769:891   */\n      pop\n      jump\t// out\n        /* \"#utility.yul\":897:1036   */\n    tag_47:\n        /* \"#utility.yul\":943:948   */\n      0x00\n        /* \"#utility.yul\":981:987   */\n      dup2\n        /* \"#utility.yul\":968:988   */\n      calldataload\n        /* \"#utility.yul\":959:988   */\n      swap1\n      pop\n        /* \"#utility.yul\":997:1030   */\n      tag_66\n        /* \"#utility.yul\":1024:1029   */\n      dup2\n        /* \"#utility.yul\":997:1030   */\n      tag_46\n      jump\t// in\n    tag_66:\n        /* \"#utility.yul\":897:1036   */\n      swap3\n      swap2\n      pop\n      pop\n      jump\t// out\n        /* \"#utility.yul\":1042:1516   */\n    tag_14:\n        /* \"#utility.yul\":1110:1116   */\n      0x00\n        /* \"#utility.yul\":1118:1124   */\n      dup1\n        /* \"#utility.yul\":1167:1169   */\n      0x40\n        /* \"#utility.yul\":1155:1164   */\n      dup4\n        /* \"#utility.yul\":1146:1153   */\n      dup6\n        /* \"#utility.yul\":1142:1165   */\n      sub\n        /* \"#utility.yul\":1138:1170   */\n      slt\n        /* \"#utility.yul\":1135:1254   */\n      iszero\n      tag_68\n      jumpi\n        /* \"#utility.yul\":1173:1252   */\n      tag_69\n      tag_44\n      jump\t// in\n    tag_69:\n        /* \"#utility.yul\":1135:1254   */\n    tag_68:\n        /* \"#utility.yul\":1293:1294   */\n      0x00\n        /* \"#utility.yul\":1318:1371   */\n      tag_70\n        /* \"#utility.yul\":1363:1370   */\n      dup6\n        /* \"#utility.yul\":1354:1360   */\n      dup3\n        /* \"#utility.yul\":1343:1352   */\n      dup7\n        /* \"#utility.yul\":1339:1361   */\n      add\n        /* \"#utility.yul\":1318:1371   */\n      tag_47\n      jump\t// in\n    tag_70:\n        /* \"#utility.yul\":1308:1371   */\n      swap3\n      pop\n        /* \"#utility.yul\":1264:1381   */\n      pop\n        /* \"#utility.yul\":1420:1422   */\n      0x20\n        /* \"#utility.yul\":1446:1499   */\n      tag_71\n        /* \"#utility.yul\":1491:1498   */\n      dup6\n        /* \"#utility.yul\":1482:1488   */\n      dup3\n        /* \"#utility.yul\":1471:1480   */\n      dup7\n        /* \"#utility.yul\":1467:1489   */\n      add\n        /* \"#utility.yul\":1446:1499   */\n      tag_47\n      jump\t// in\n    tag_71:\n        /* \"#utility.yul\":1436:1499   */\n      swap2\n      pop\n        /* \"#utility.yul\":1391:1509   */\n      pop\n        /* \"#utility.yul\":1042:1516   */\n      swap3\n      pop\n      swap3\n      swap1\n      pop\n      jump\t// out\n        /* \"#utility.yul\":1522:1702   */\n    tag_48:\n        /* \"#utility.yul\":1570:1647   */\n      0x4e487b7100000000000000000000000000000000000000000000000000000000\n        /* \"#utility.yul\":1567:1568   */\n      0x00\n        /* \"#utility.yul\":1560:1648   */\n      mstore\n        /* \"#utility.yul\":1667:1671   */\n      0x11\n        /* \"#utility.yul\":1664:1665   */\n      0x04\n        /* \"#utility.yul\":1657:1672   */\n      mstore\n        /* \"#utility.yul\":1691:1695   */\n      0x24\n        /* \"#utility.yul\":1688:1689   */\n      0x00\n        /* \"#utility.yul\":1681:1696   */\n      revert\n        /* \"#utility.yul\":1708:1899   */\n    tag_27:\n        /* \"#utility.yul\":1748:1751   */\n      0x00\n        /* \"#utility.yul\":1767:1787   */\n      tag_74\n        /* \"#utility.yul\":1785:1786   */\n      dup3\n        /* \"#utility.yul\":1767:1787   */\n      tag_41\n      jump\t// in\n    tag_74:\n        /* \"#utility.yul\":1762:1787   */\n      swap2\n      pop\n        /* \"#utility.yul\":1801:1821   */\n      tag_75\n        /* \"#utility.yul\":1819:1820   */\n      dup4\n        /* \"#utility.yul\":1801:1821   */\n      tag_41\n      jump\t// in\n    tag_75:\n        /* \"#utility.yul\":1796:1821   */\n      swap3\n      pop\n        /* \"#utility.yul\":1844:1845   */\n      dup3\n        /* \"#utility.yul\":1841:1842   */\n      dup3\n        /* \"#utility.yul\":1837:1846   */\n      add\n        /* \"#utility.yul\":1830:1846   */\n      swap1\n      pop\n        /* \"#utility.yul\":1865:1868   */\n      dup1\n        /* \"#utility.yul\":1862:1863   */\n      dup3\n        /* \"#utility.yul\":1859:1869   */\n      gt\n        /* \"#utility.yul\":1856:1892   */\n      iszero\n      tag_76\n      jumpi\n        /* \"#utility.yul\":1872:1890   */\n      tag_77\n      tag_48\n      jump\t// in\n    tag_77:\n        /* \"#utility.yul\":1856:1892   */\n    tag_76:\n        /* \"#utility.yul\":1708:1899   */\n      swap3\n      swap2\n      pop\n      pop\n      jump\t// out\n        /* \"#utility.yul\":1905:2074   */\n    tag_49:\n        /* \"#utility.yul\":1989:2000   */\n      0x00\n        /* \"#utility.yul\":2023:2029   */\n      dup3\n        /* \"#utility.yul\":2018:2021   */\n      dup3\n        /* \"#utility.yul\":2011:2030   */\n      mstore\n        /* \"#utility.yul\":2063:2067   */\n      0x20\n        /* \"#utility.yul\":2058:2061   */\n      dup3\n        /* \"#utility.yul\":2054:2068   */\n      add\n        /* \"#utility.yul\":2039:2068   */\n      swap1\n      pop\n        /* \"#utility.yul\":1905:2074   */\n      swap3\n      swap2\n      pop\n      pop\n      jump\t// out\n        /* \"#utility.yul\":2080:2311   */\n    tag_50:\n        /* \"#utility.yul\":2220:2254   */\n      0x546865207365636f6e6420706172616d657465722073686f756c64206265206c\n        /* \"#utility.yul\":2216:2217   */\n      0x00\n        /* \"#utility.yul\":2208:2214   */\n      dup3\n        /* \"#utility.yul\":2204:2218   */\n      add\n        /* \"#utility.yul\":2197:2255   */\n      mstore\n        /* \"#utility.yul\":2289:2303   */\n      0x6172676572207468616e20300000000000000000000000000000000000000000\n        /* \"#utility.yul\":2284:2286   */\n      0x20\n        /* \"#utility.yul\":2276:2282   */\n      dup3\n        /* \"#utility.yul\":2272:2287   */\n      add\n        /* \"#utility.yul\":2265:2304   */\n      mstore\n        /* \"#utility.yul\":2080:2311   */\n      pop\n      jump\t// out\n        /* \"#utility.yul\":2317:2683   */\n    tag_51:\n        /* \"#utility.yul\":2459:2462   */\n      0x00\n        /* \"#utility.yul\":2480:2547   */\n      tag_81\n        /* \"#utility.yul\":2544:2546   */\n      0x2c\n        /* \"#utility.yul\":2539:2542   */\n      dup4\n        /* \"#utility.yul\":2480:2547   */\n      tag_49\n      jump\t// in\n    tag_81:\n        /* \"#utility.yul\":2473:2547   */\n      swap2\n      pop\n        /* \"#utility.yul\":2556:2649   */\n      tag_82\n        /* \"#utility.yul\":2645:2648   */\n      dup3\n        /* \"#utility.yul\":2556:2649   */\n      tag_50\n      jump\t// in\n    tag_82:\n        /* \"#utility.yul\":2674:2676   */\n      0x40\n        /* \"#utility.yul\":2669:2672   */\n      dup3\n        /* \"#utility.yul\":2665:2677   */\n      add\n        /* \"#utility.yul\":2658:2677   */\n      swap1\n      pop\n        /* \"#utility.yul\":2317:2683   */\n      swap2\n      swap1\n      pop\n      jump\t// out\n        /* \"#utility.yul\":2689:3108   */\n    tag_32:\n        /* \"#utility.yul\":2855:2859   */\n      0x00\n        /* \"#utility.yul\":2893:2895   */\n      0x20\n        /* \"#utility.yul\":2882:2891   */\n      dup3\n        /* \"#utility.yul\":2878:2896   */\n      add\n        /* \"#utility.yul\":2870:2896   */\n      swap1\n      pop\n        /* \"#utility.yul\":2942:2951   */\n      dup2\n        /* \"#utility.yul\":2936:2940   */\n      dup2\n        /* \"#utility.yul\":2932:2952   */\n      sub\n        /* \"#utility.yul\":2928:2929   */\n      0x00\n        /* \"#utility.yul\":2917:2926   */\n      dup4\n        /* \"#utility.yul\":2913:2930   */\n      add\n        /* \"#utility.yul\":2906:2953   */\n      mstore\n        /* \"#utility.yul\":2970:3101   */\n      tag_84\n        /* \"#utility.yul\":3096:3100   */\n      dup2\n        /* \"#utility.yul\":2970:3101   */\n      tag_51\n      jump\t// in\n    tag_84:\n        /* \"#utility.yul\":2962:3101   */\n      swap1\n      pop\n        /* \"#utility.yul\":2689:3108   */\n      swap2\n      swap1\n      pop\n      jump\t// out\n        /* \"#utility.yul\":3114:3294   */\n    tag_52:\n        /* \"#utility.yul\":3162:3239   */\n      0x4e487b7100000000000000000000000000000000000000000000000000000000\n        /* \"#utility.yul\":3159:3160   */\n      0x00\n        /* \"#utility.yul\":3152:3240   */\n      mstore\n        /* \"#utility.yul\":3259:3263   */\n      0x12\n        /* \"#utility.yul\":3256:3257   */\n      0x04\n        /* \"#utility.yul\":3249:3264   */\n      mstore\n        /* \"#utility.yul\":3283:3287   */\n      0x24\n        /* \"#utility.yul\":3280:3281   */\n      0x00\n        /* \"#utility.yul\":3273:3288   */\n      revert\n        /* \"#utility.yul\":3300:3485   */\n    tag_34:\n        /* \"#utility.yul\":3340:3341   */\n      0x00\n        /* \"#utility.yul\":3357:3377   */\n      tag_87\n        /* \"#utility.yul\":3375:3376   */\n      dup3\n        /* \"#utility.yul\":3357:3377   */\n      tag_41\n      jump\t// in\n    tag_87:\n        /* \"#utility.yul\":3352:3377   */\n      swap2\n      pop\n        /* \"#utility.yul\":3391:3411   */\n      tag_88\n        /* \"#utility.yul\":3409:3410   */\n      dup4\n        /* \"#utility.yul\":3391:3411   */\n      tag_41\n      jump\t// in\n    tag_88:\n        /* \"#utility.yul\":3386:3411   */\n      swap3\n      pop\n        /* \"#utility.yul\":3430:3431   */\n      dup3\n        /* \"#utility.yul\":3420:3455   */\n      tag_89\n      jumpi\n        /* \"#utility.yul\":3435:3453   */\n      tag_90\n      tag_52\n      jump\t// in\n    tag_90:\n        /* \"#utility.yul\":3420:3455   */\n    tag_89:\n        /* \"#utility.yul\":3477:3478   */\n      dup3\n        /* \"#utility.yul\":3474:3475   */\n      dup3\n        /* \"#utility.yul\":3470:3479   */\n      div\n        /* \"#utility.yul\":3465:3479   */\n      swap1\n      pop\n        /* \"#utility.yul\":3300:3485   */\n      swap3\n      swap2\n      pop\n      pop\n      jump\t// out\n        /* \"#utility.yul\":3491:3685   */\n    tag_37:\n        /* \"#utility.yul\":3531:3535   */\n      0x00\n        /* \"#utility.yul\":3551:3571   */\n      tag_92\n        /* \"#utility.yul\":3569:3570   */\n      dup3\n        /* \"#utility.yul\":3551:3571   */\n      tag_41\n      jump\t// in\n    tag_92:\n        /* \"#utility.yul\":3546:3571   */\n      swap2\n      pop\n        /* \"#utility.yul\":3585:3605   */\n      tag_93\n        /* \"#utility.yul\":3603:3604   */\n      dup4\n        /* \"#utility.yul\":3585:3605   */\n      tag_41\n      jump\t// in\n    tag_93:\n        /* \"#utility.yul\":3580:3605   */\n      swap3\n      pop\n        /* \"#utility.yul\":3629:3630   */\n      dup3\n        /* \"#utility.yul\":3626:3627   */\n      dup3\n        /* \"#utility.yul\":3622:3631   */\n      sub\n        /* \"#utility.yul\":3614:3631   */\n      swap1\n      pop\n        /* \"#utility.yul\":3653:3654   */\n      dup2\n        /* \"#utility.yul\":3647:3651   */\n      dup2\n        /* \"#utility.yul\":3644:3655   */\n      gt\n        /* \"#utility.yul\":3641:3678   */\n      iszero\n      tag_94\n      jumpi\n        /* \"#utility.yul\":3658:3676   */\n      tag_95\n      tag_48\n      jump\t// in\n    tag_95:\n        /* \"#utility.yul\":3641:3678   */\n    tag_94:\n        /* \"#utility.yul\":3491:3685   */\n      swap3\n      swap2\n      pop\n      pop\n      jump\t// out\n        /* \"#utility.yul\":3691:4101   */\n    tag_40:\n        /* \"#utility.yul\":3731:3738   */\n      0x00\n        /* \"#utility.yul\":3754:3774   */\n      tag_97\n        /* \"#utility.yul\":3772:3773   */\n      dup3\n        /* \"#utility.yul\":3754:3774   */\n      tag_41\n      jump\t// in\n    tag_97:\n        /* \"#utility.yul\":3749:3774   */\n      swap2\n      pop\n        /* \"#utility.yul\":3788:3808   */\n      tag_98\n        /* \"#utility.yul\":3806:3807   */\n      dup4\n        /* \"#utility.yul\":3788:3808   */\n      tag_41\n      jump\t// in\n    tag_98:\n        /* \"#utility.yul\":3783:3808   */\n      swap3\n      pop\n        /* \"#utility.yul\":3843:3844   */\n      dup3\n        /* \"#utility.yul\":3840:3841   */\n      dup3\n        /* \"#utility.yul\":3836:3845   */\n      mul\n        /* \"#utility.yul\":3865:3895   */\n      tag_99\n        /* \"#utility.yul\":3883:3894   */\n      dup2\n        /* \"#utility.yul\":3865:3895   */\n      tag_41\n      jump\t// in\n    tag_99:\n        /* \"#utility.yul\":3854:3895   */\n      swap2\n      pop\n        /* \"#utility.yul\":4044:4045   */\n      dup3\n        /* \"#utility.yul\":4035:4042   */\n      dup3\n        /* \"#utility.yul\":4031:4046   */\n      div\n        /* \"#utility.yul\":4028:4029   */\n      dup5\n        /* \"#utility.yul\":4025:4047   */\n      eq\n        /* \"#utility.yul\":4005:4006   */\n      dup4\n        /* \"#utility.yul\":3998:4007   */\n      iszero\n        /* \"#utility.yul\":3978:4061   */\n      or\n        /* \"#utility.yul\":3955:4094   */\n      tag_100\n      jumpi\n        /* \"#utility.yul\":4074:4092   */\n      tag_101\n      tag_48\n      jump\t// in\n    tag_101:\n        /* \"#utility.yul\":3955:4094   */\n    tag_100:\n        /* \"#utility.yul\":3739:4101   */\n      pop\n        /* \"#utility.yul\":3691:4101   */\n      swap3\n      swap2\n      pop\n      pop\n      jump\t// out\n\n    auxdata: 0xa264697066735822122076a24a9c5ba6e50211cd2054f4605aa55b478301d01ae28833bac34f1e296ef064736f6c63430008110033\n}\n",
				"bytecode": {
					"linkReferences": {},
					"object": "608060405234801561001057600080fd5b50610459806100206000396000f3fe608060405234801561001057600080fd5b50600436106100575760003560e01c80634f2be91f1461005c5780639c3dfaf61461007a578063b53b8d7a14610096578063df09a2da146100b4578063f3593cd0146100d2575b600080fd5b6100646100f0565b60405161007191906101bb565b60405180910390f35b610094600480360381019061008f9190610207565b610107565b005b61009e610119565b6040516100ab91906101bb565b60405180910390f35b6100bc610174565b6040516100c991906101bb565b60405180910390f35b6100da61018b565b6040516100e791906101bb565b60405180910390f35b60006001546000546101029190610276565b905090565b81600081905550806001819055505050565b6000806001541161015f576040517f08c379a00000000000000000000000000000000000000000000000000000000081526004016101569061032d565b60405180910390fd5b60015460005461016f919061037c565b905090565b600060015460005461018691906103ad565b905090565b600060015460005461019d91906103e1565b905090565b6000819050919050565b6101b5816101a2565b82525050565b60006020820190506101d060008301846101ac565b92915050565b600080fd5b6101e4816101a2565b81146101ef57600080fd5b50565b600081359050610201816101db565b92915050565b6000806040838503121561021e5761021d6101d6565b5b600061022c858286016101f2565b925050602061023d858286016101f2565b9150509250929050565b7f4e487b7100000000000000000000000000000000000000000000000000000000600052601160045260246000fd5b6000610281826101a2565b915061028c836101a2565b92508282019050808211156102a4576102a3610247565b5b92915050565b600082825260208201905092915050565b7f546865207365636f6e6420706172616d657465722073686f756c64206265206c60008201527f6172676572207468616e20300000000000000000000000000000000000000000602082015250565b6000610317602c836102aa565b9150610322826102bb565b604082019050919050565b600060208201905081810360008301526103468161030a565b9050919050565b7f4e487b7100000000000000000000000000000000000000000000000000000000600052601260045260246000fd5b6000610387826101a2565b9150610392836101a2565b9250826103a2576103a161034d565b5b828204905092915050565b60006103b8826101a2565b91506103c3836101a2565b92508282039050818111156103db576103da610247565b5b92915050565b60006103ec826101a2565b91506103f7836101a2565b9250828202610405816101a2565b9150828204841483151761041c5761041b610247565b5b509291505056fea264697066735822122076a24a9c5ba6e50211cd2054f4605aa55b478301d01ae28833bac34f1e296ef064736f6c63430008110033",
					"opcodes": "PUSH1 0x80 PUSH1 0x40 MSTORE CALLVALUE DUP1 ISZERO PUSH2 0x10 JUMPI PUSH1 0x0 DUP1 REVERT JUMPDEST POP PUSH2 0x459 DUP1 PUSH2 0x20 PUSH1 0x0 CODECOPY PUSH1 0x0 RETURN INVALID PUSH1 0x80 PUSH1 0x40 MSTORE CALLVALUE DUP1 ISZERO PUSH2 0x10 JUMPI PUSH1 0x0 DUP1 REVERT JUMPDEST POP PUSH1 0x4 CALLDATASIZE LT PUSH2 0x57 JUMPI PUSH1 0x0 CALLDATALOAD PUSH1 0xE0 SHR DUP1 PUSH4 0x4F2BE91F EQ PUSH2 0x5C JUMPI DUP1 PUSH4 0x9C3DFAF6 EQ PUSH2 0x7A JUMPI DUP1 PUSH4 0xB53B8D7A EQ PUSH2 0x96 JUMPI DUP1 PUSH4 0xDF09A2DA EQ PUSH2 0xB4 JUMPI DUP1 PUSH4 0xF3593CD0 EQ PUSH2 0xD2 JUMPI JUMPDEST PUSH1 0x0 DUP1 REVERT JUMPDEST PUSH2 0x64 PUSH2 0xF0 JUMP JUMPDEST PUSH1 0x40 MLOAD PUSH2 0x71 SWAP2 SWAP1 PUSH2 0x1BB JUMP JUMPDEST PUSH1 0x40 MLOAD DUP1 SWAP2 SUB SWAP1 RETURN JUMPDEST PUSH2 0x94 PUSH1 0x4 DUP1 CALLDATASIZE SUB DUP2 ADD SWAP1 PUSH2 0x8F SWAP2 SWAP1 PUSH2 0x207 JUMP JUMPDEST PUSH2 0x107 JUMP JUMPDEST STOP JUMPDEST PUSH2 0x9E PUSH2 0x119 JUMP JUMPDEST PUSH1 0x40 MLOAD PUSH2 0xAB SWAP2 SWAP1 PUSH2 0x1BB JUMP JUMPDEST PUSH1 0x40 MLOAD DUP1 SWAP2 SUB SWAP1 RETURN JUMPDEST PUSH2 0xBC PUSH2 0x174 JUMP JUMPDEST PUSH1 0x40 MLOAD PUSH2 0xC9 SWAP2 SWAP1 PUSH2 0x1BB JUMP JUMPDEST PUSH1 0x40 MLOAD DUP1 SWAP2 SUB SWAP1 RETURN JUMPDEST PUSH2 0xDA PUSH2 0x18B JUMP JUMPDEST PUSH1 0x40 MLOAD PUSH2 0xE7 SWAP2 SWAP1 PUSH2 0x1BB JUMP JUMPDEST PUSH1 0x40 MLOAD DUP1 SWAP2 SUB SWAP1 RETURN JUMPDEST PUSH1 0x0 PUSH1 0x1 SLOAD PUSH1 0x0 SLOAD PUSH2 0x102 SWAP2 SWAP1 PUSH2 0x276 JUMP JUMPDEST SWAP1 POP SWAP1 JUMP JUMPDEST DUP2 PUSH1 0x0 DUP2 SWAP1 SSTORE POP DUP1 PUSH1 0x1 DUP2 SWAP1 SSTORE POP POP POP JUMP JUMPDEST PUSH1 0x0 DUP1 PUSH1 0x1 SLOAD GT PUSH2 0x15F JUMPI PUSH1 0x40 MLOAD PUSH32 0x8C379A000000000000000000000000000000000000000000000000000000000 DUP2 MSTORE PUSH1 0x4 ADD PUSH2 0x156 SWAP1 PUSH2 0x32D JUMP JUMPDEST PUSH1 0x40 MLOAD DUP1 SWAP2 SUB SWAP1 REVERT JUMPDEST PUSH1 0x1 SLOAD PUSH1 0x0 SLOAD PUSH2 0x16F SWAP2 SWAP1 PUSH2 0x37C JUMP JUMPDEST SWAP1 POP SWAP1 JUMP JUMPDEST PUSH1 0x0 PUSH1 0x1 SLOAD PUSH1 0x0 SLOAD PUSH2 0x186 SWAP2 SWAP1 PUSH2 0x3AD JUMP JUMPDEST SWAP1 POP SWAP1 JUMP JUMPDEST PUSH1 0x0 PUSH1 0x1 SLOAD PUSH1 0x0 SLOAD PUSH2 0x19D SWAP2 SWAP1 PUSH2 0x3E1 JUMP JUMPDEST SWAP1 POP SWAP1 JUMP JUMPDEST PUSH1 0x0 DUP2 SWAP1 POP SWAP2 SWAP1 POP JUMP JUMPDEST PUSH2 0x1B5 DUP2 PUSH2 0x1A2 JUMP JUMPDEST DUP3 MSTORE POP POP JUMP JUMPDEST PUSH1 0x0 PUSH1 0x20 DUP3 ADD SWAP1 POP PUSH2 0x1D0 PUSH1 0x0 DUP4 ADD DUP5 PUSH2 0x1AC JUMP JUMPDEST SWAP3 SWAP2 POP POP JUMP JUMPDEST PUSH1 0x0 DUP1 REVERT JUMPDEST PUSH2 0x1E4 DUP2 PUSH2 0x1A2 JUMP JUMPDEST DUP2 EQ PUSH2 0x1EF JUMPI PUSH1 0x0 DUP1 REVERT JUMPDEST POP JUMP JUMPDEST PUSH1 0x0 DUP2 CALLDATALOAD SWAP1 POP PUSH2 0x201 DUP2 PUSH2 0x1DB JUMP JUMPDEST SWAP3 SWAP2 POP POP JUMP JUMPDEST PUSH1 0x0 DUP1 PUSH1 0x40 DUP4 DUP6 SUB SLT ISZERO PUSH2 0x21E JUMPI PUSH2 0x21D PUSH2 0x1D6 JUMP JUMPDEST JUMPDEST PUSH1 0x0 PUSH2 0x22C DUP6 DUP3 DUP7 ADD PUSH2 0x1F2 JUMP JUMPDEST SWAP3 POP POP PUSH1 0x20 PUSH2 0x23D DUP6 DUP3 DUP7 ADD PUSH2 0x1F2 JUMP JUMPDEST SWAP2 POP POP SWAP3 POP SWAP3 SWAP1 POP JUMP JUMPDEST PUSH32 0x4E487B7100000000000000000000000000000000000000000000000000000000 PUSH1 0x0 MSTORE PUSH1 0x11 PUSH1 0x4 MSTORE PUSH1 0x24 PUSH1 0x0 REVERT JUMPDEST PUSH1 0x0 PUSH2 0x281 DUP3 PUSH2 0x1A2 JUMP JUMPDEST SWAP2 POP PUSH2 0x28C DUP4 PUSH2 0x1A2 JUMP JUMPDEST SWAP3 POP DUP3 DUP3 ADD SWAP1 POP DUP1 DUP3 GT ISZERO PUSH2 0x2A4 JUMPI PUSH2 0x2A3 PUSH2 0x247 JUMP JUMPDEST JUMPDEST SWAP3 SWAP2 POP POP JUMP JUMPDEST PUSH1 0x0 DUP3 DUP3 MSTORE PUSH1 0x20 DUP3 ADD SWAP1 POP SWAP3 SWAP2 POP POP JUMP JUMPDEST PUSH32 0x546865207365636F6E6420706172616D657465722073686F756C64206265206C PUSH1 0x0 DUP3 ADD MSTORE PUSH32 0x6172676572207468616E20300000000000000000000000000000000000000000 PUSH1 0x20 DUP3 ADD MSTORE POP JUMP JUMPDEST PUSH1 0x0 PUSH2 0x317 PUSH1 0x2C DUP4 PUSH2 0x2AA JUMP JUMPDEST SWAP2 POP PUSH2 0x322 DUP3 PUSH2 0x2BB JUMP JUMPDEST PUSH1 0x40 DUP3 ADD SWAP1 POP SWAP2 SWAP1 POP JUMP JUMPDEST PUSH1 0x0 PUSH1 0x20 DUP3 ADD SWAP1 POP DUP2 DUP2 SUB PUSH1 0x0 DUP4 ADD MSTORE PUSH2 0x346 DUP2 PUSH2 0x30A JUMP JUMPDEST SWAP1 POP SWAP2 SWAP1 POP JUMP JUMPDEST PUSH32 0x4E487B7100000000000000000000000000000000000000000000000000000000 PUSH1 0x0 MSTORE PUSH1 0x12 PUSH1 0x4 MSTORE PUSH1 0x24 PUSH1 0x0 REVERT JUMPDEST PUSH1 0x0 PUSH2 0x387 DUP3 PUSH2 0x1A2 JUMP JUMPDEST SWAP2 POP PUSH2 0x392 DUP4 PUSH2 0x1A2 JUMP JUMPDEST SWAP3 POP DUP3 PUSH2 0x3A2 JUMPI PUSH2 0x3A1 PUSH2 0x34D JUMP JUMPDEST JUMPDEST DUP3 DUP3 DIV SWAP1 POP SWAP3 SWAP2 POP POP JUMP JUMPDEST PUSH1 0x0 PUSH2 0x3B8 DUP3 PUSH2 0x1A2 JUMP JUMPDEST SWAP2 POP PUSH2 0x3C3 DUP4 PUSH2 0x1A2 JUMP JUMPDEST SWAP3 POP DUP3 DUP3 SUB SWAP1 POP DUP2 DUP2 GT ISZERO PUSH2 0x3DB JUMPI PUSH2 0x3DA PUSH2 0x247 JUMP JUMPDEST JUMPDEST SWAP3 SWAP2 POP POP JUMP JUMPDEST PUSH1 0x0 PUSH2 0x3EC DUP3 PUSH2 0x1A2 JUMP JUMPDEST SWAP2 POP PUSH2 0x3F7 DUP4 PUSH2 0x1A2 JUMP JUMPDEST SWAP3 POP DUP3 DUP3 MUL PUSH2 0x405 DUP2 PUSH2 0x1A2 JUMP JUMPDEST SWAP2 POP DUP3 DUP3 DIV DUP5 EQ DUP4 ISZERO OR PUSH2 0x41C JUMPI PUSH2 0x41B PUSH2 0x247 JUMP JUMPDEST JUMPDEST POP SWAP3 SWAP2 POP POP JUMP INVALID LOG2 PUSH5 0x6970667358 0x22 SLT KECCAK256 PUSH23 0xA24A9C5BA6E50211CD2054F4605AA55B478301D01AE288 CALLER 0xBA 0xC3 0x4F 0x1E 0x29 PUSH15 0xF064736F6C63430008110033000000 "
				},
				"gasEstimates": {
					"creation": {
						"codeDepositCost": "222600",
						"executionCost": "263",
						"totalCost": "222863"
					},
					"external": {
						"add()": "infinite",
						"divide()": "infinite",
						"multiply()": "infinite",
						"setValues(uint256,uint256)": "infinite",
						"substract()": "infinite"
					}
				},
				"methodIdentifiers": {
					"add()": "4f2be91f",
					"divide()": "b53b8d7a",
					"multiply()": "f3593cd0",
					"setValues(uint256,uint256)": "9c3dfaf6",
					"substract()": "df09a2da"
				}
			},
			"storageLayout": {
				"storage": [
					{
						"astId": 3,
						"contract": "contracts/calculator.sol:calculator",
						"label": "x",
						"offset": 0,
						"slot": "0",
						"type": "t_uint256"
					},
					{
						"astId": 5,
						"contract": "contracts/calculator.sol:calculator",
						"label": "y",
						"offset": 0,
						"slot": "1",
						"type": "t_uint256"
					}
				],
				"types": {
					"t_uint256": {
						"encoding": "inplace",
						"label": "uint256",
						"numberOfBytes": "32"
					}
				}
			},
			"userdoc": {
				"kind": "user",
				"methods": {},
				"version": 1
			}
		}
	}
}